:1000000024242424242424242424242424242424B0
:1000100024242424242424242424242424242424A0
:100020002424242424242424242424242424242490
:100030002424242424242424242424242424242480
:100040002424242424242424242424242424242470
:100050002424242424242424242424242424242460
:100060002424242424242424242424242424242450
:100070002424242424242424242424242424242440
:100080002424242424242424242424242424242430
:100090002424242424242424242424242424242420
:1000A0002424242424242424242424242424242410
:1000B0002424242424242424242424242424242400
:1000C00024242424242424242424242424242424F0
:1000D0002424242424241D0C132424242424242410
:1000E00024242424242424242424242424242424D0
:1000F000241E12131C2411111E242424242424241D
:10010000242424242424242424242424240A0A0AFD
:100110002417171E1D240E0A162424242424242404
:10012000242424242424242424111D1E241B171FCA
:10013000241524160A2424171924242424242424CE
:1001400024242424240A240E2412181C240E0D18FE
:10015000240E0A1922241D102424242424242424B7
:1001600024242424240D0821241C240E24242412B5
:10017000241C241224240A0E182424242424242495
:1001800024242424240D001D2424152424170C0DBC
:10019000241C0F1718241B2417242424242424246B
:1001A000242424242412001B240D1E1C24181B2488
:1001B00024240A101724101D242424242424242455
:1001C00024242424241D000A240E1B19241D0E0A95
:1001D000240A1D2424240E111C2424242424242431
:1001E0002424242424122424240A0E1224240A154C
:1001F00024240A1819241D0E1A2424242424242417
:100200002424242424180A15241D241724101D1521
:10021000240D150F152424161E24242424242424FC
:10022000242424242417171224111C17241B1E24F1
:100230002412240F0A240C240A24242424242424F1
:1002400024242424240A0D0F24241712240E1B18FE
:10025000241C19242224181D1B242424242424248F
:10026000242424242415240E24240A17240E0E0BDF
:100270002414151B0F2415180E24242424242424AC
:100280002424242424240E242424141024171C138E
:1002900024241E0E122418241C2424242424242460
:1002A0002424242424010A0A24240E242424240E91
:1002B0002412161C0E241B242424240C242424245D
:1002C0002424242424040C1D2424240D24241D0C63
:1002D000241C161E152424241D24241B2424242419
:1002E000242424242400112424241D122424111D38
:1002F00024240E150D2424241824240E242424241C
:1003000024242424240024242424181C24240A1C07
:10031000241D1D1DB32424242424240D242424243A
:1003200024242424240024242424241424241D24C8
:100330002411241C242424242424241224242424AA
:1003400024242424242424242424241C2424242475
:10035000240E2424242424242424241D242424247A
:10036000242424242424242424242424242424244D
:10037000241B2424242424242424001C2424242472
:10038000242424242424242424242424242424242D
:10039000240E242424242424242424242424242433
:1003A000242424242424242424242424242424240D
:1003B00024242424242424242424242424242424FD
:1003C000000000000000000000000000000000002D
:1003D000000000000000000000000000000000001D
:1003E000000000000000000000000000000000000D
:1003F00000000000000000000000000000000000FD
:00000001FF
