:100000003800440054005C00580040003C000000F0
:1000100010002800440044007C004400440000001C
:100020007800440044007800440044007800000058
:100030003800440040004000400044003800000008
:10004000780044004400440044004400780000006C
:100050007C00400040007800400040007C00000030
:100060007C0040004000780040004000400000005C
:100070003C004000400040004C00440038000000BC
:100080004400440044007C0044004400440000005C
:1000900038001000100010001000100038000000A0
:1000A00004000400040004000400440038000000C0
:1000B0004400480050006000500048004400000028
:1000C0004000400040004000400040007C00000034
:1000D00044006C00540054004400440044000000FC
:1000E00044004400640054004C00440044000000FC
:1000F000380044004400440044004400380000003C
:1001000078004400440078004000400040000000B7
:10011000380044004400440054004800340000000B
:10012000780044004400780050004800440000007B
:10013000380044004000380004004400380000004B
:100140007C001000100010001000100010000000D3
:1001500044004400440044004400440038000000CF
:100160004400440044004400440028001000000003
:10017000440044004400540054006C00440000005B
:1001800044004400280010002800440044000000FF
:10019000440044002800100010001000100000006F
:1001A0007C00040008001000200040007C000000DB
:1001B00038382000200020002000200020002000EF
:1001C00000004000200010000800040000000000B3
:1001D0001C1C0400040004000400040004000400CB
:1001E0001000280044000000000000000000000093
:1001F00000FF000000000000000000000000000000
:1002000000000000000000000000000000000000EE
:10021000100010001000100010001000000010006E
:100220002800280028000000000000000000000056
:10023000280028007C0028007C00280028000000FE
:1002400010003C005000380014007800100000003E
:10025000600064000800100020004C000C0000004A
:1002600020005000500020005400480034000000DE
:10027000100010001000000000000000000000004E
:10028000101020002000400040004000200020000E
:100290001010080008000400040004000800080012
:1002A0001000540038001000380054001000000006
:1002B0000000100010007C00100010000000000082
:1002C00000000000000000000000100010002000EE
:1002D000000000000000FE00000000000000000020
:1002E00000000000000000000000000000001000FE
:1002F0000000040008001000200040000000000082
:10030000380044004C0054006400440038000000F1
:100310001000300010001000100010003800000025
:100320003800440004001800200040007C00000059
:100330007C0004000800180004004400380000009D
:1003400008001800280048007C0008000800000091
:100350007C004000780004000400440038000000E5
:100360001C002000400078004400440038000000D9
:100370007C00040008001000200020002000000085
:1003800038004400440038004400440038000000B5
:100390003800440044003C000400080070000000E5
:1003A000000000001000000010000000000000002D
:1003B00000000000100000001000100020000000ED
:1003C000080010002000400020001000080000007D
:1003D000000000007C0000007C0000000000000025
:1003E0002000100008000400080010002000000099
:1003F0003800440008001000100000001000000049
:00000001FF
