:10000000A220A000A203863C8A0A243CF010053CF2
:1000100049FF297EB0084AD0FB989D5603C8E810D6
:10002000E52058FFBABD00010A0A0A0A852BAABDBD
:100030008EC0BD8CC0BD8AC0BD89C0A050BD80C06F
:100040009829030A052BAABD81C0A95620A8FC88BF
:1000500010EB8526853D8541A90885271808BD8CAC
:10006000C010FB49D5D0F7BD8CC010FBC9AAD0F396
:10007000EABD8CC010FBC996F0092890DF49ADF0AD
:1000800025D0D9A0038540BD8CC010FB2A853CBD7E
:100090008CC010FB253C88D0EC28C53DD0BEA540C7
:1000A000C541D0B8B0B7A056843CBC8CC010FB5939
:1000B000D602A43C88990003D0EE843CBC8CC010CE
:1000C000FB59D602A43C9126C8D0EFBC8CC010FBD3
:1000D00059D602D087A000A256CA30FBB1265E00D6
:1000E000032A5E00032A9126C8D0EEE627E63DA546
:1000F0003DCD0008A62B90DB4C010800000000005D
:00000001FF
