:10000000A5CAD004A508D045A2FF9AD8AEE702AC95
:10001000E80286808481A900859285CAC88AA28266
:100020009500E89400E8E09290F6A286A001207F77
:10003000A8A28CA003207FA8A900A89184918AC8B7
:10004000A980918AC8A903918AA90A85C920F8B80C
:100050002041BD2072BDA592F0032099BD2057BD5F
:10006000A5CAD09CA2FF9A2051DAA95D85C2209230
:10007000BA20F4A9D0EAA90085F2859F859485A6C7
:1000800085B385B085B1A58485ADA58585AE20A154
:10009000DB209FA120C8A2A5D5100285A620A1DB48
:1000A000A4F284A8B1F3C99BD00724A630B24C892E
:1000B000A1A59485A720C8A220A1DBA9A4A0AFA2D6
:1000C000022062A486F2A5AF20C8A220A1DB20C333
:1000D000A19035A49FB1F3C99BD006C891F388A91C
:1000E00020098091F3A94005A685A6A4A884F2A2C0
:1000F0000386A7E88694A93720C8A2A4F2B1F3E644
:10010000F2C99BD0F320C8A2A594A4A79180A4F221
:1001100088B1F3C99BD09AA002A594918020A2A98E
:10012000A900B00320DDA938E594F020B01349FF01
:10013000A8C8A28A207FA8A597858AA598858BD074
:100140000B4820D0A968A8A28A20FBA8A49488B153
:1001500080918A98D0F824A6502AA5B10A0A0AA844
:10016000A28820FBA838A584E5ADA8A585E5AEA2A8
:100170008420FDA824A610062078B54C60A0205C41
:10018000B54C60A010FB4C5FA920A2A9B0F320DD04
:10019000A94820D0A968A8A28A20FBA84C60A0206A
:1001A00000D89008A90085F2A08030092056ADA49F
:1001B000D530F1A5D484A185A020C8A2A5A185D55C
:1001C0004CC8A2A001B195859E8D830488B1958508
:1001D0009D8D8204A90085A9A5948D8104A5F28D29
:1001E000800420A1A2301AC901902AD0082015A2AB
:1001F00090F04C6CA2C905905920A9A290E44C6CD7
:10020000A238A200E9C1B002A2FF18659D488A6524
:100210009E484C28A220A1A24820A1A2489009688B
:10022000A868AA98488A4860A6A9E8E8E8E8F01F04
:1002300086A9A5F29D8004A5949D8104A59D9D821B
:1002400004A59E9D830468859E68859D4CE2A14C13
:1002500024B9A6A9D00160BD8204859DBD83048513
:100260009ECACACACA86A9B0034CE2A120A1A23084
:10027000FBC902B008209AA2209AA2D0EFC903F0CD
:10028000D1B0E9A5F2C59F9002859FA6A9BD8004C3
:1002900085F2BD810485944CE2A1E69DD002E69EE4
:1002A00060209AA2A200A19D60C90FF00DB037682E
:1002B00068A90C48A9A6484C28A2209AA2A000B17F
:1002C0009DA4948891801860A4949180E694F00194
:1002D000604C24B9A2FF9AA594A4A791804CB1A028
:1002E000A2FF9A4CFBA020A1DBA5F2C5B3F01685B6
:1002F000B3A9A7A0E3A2002062A4B02886B218A5E3
:10030000AF691085B0A000B19DC5B0F00EC944D052
:1003100006A5B0C944B0023860A5B020C8A2A6B2F4
:1003200086F21860A90085B03860A900F002A980A3
:1003300085D220A1DBA5F285AC20F3A3B02520E671
:10034000A2A5B0F008A4B2B1F3C9309016E6F2202D
:10035000F3A390F920AFDB90F4B1F3C924F00624A5
:10036000D21009386024D210FAC8D00DB1F3C928D0
:10037000D007C8A94005D285D2A5AC85F284ACA52A
:1003800083A482A2002062A4B00AE4ACF04D2090C5
:10039000A44C88A338A5ACE5F285F2A8A284207FFE
:1003A000A8A5AF85D3A4F288A6ACCABD8005919755
:1003B000CA8810F7A4F288B19709809197A008A283
:1003C00088207FA8E6B1A002A90099D200C8C00881
:1003D00090F888B9D20091978810F824D25002C6BC
:1003E000ACA5AC85F2A5AF3007098020C8A2186083
:1003F0004C38B9A4F2B1F3C9419003C95B603860CD
:1004000020A1DBA5F285AC2000D89005A5AC85F233
:1004100060A90E20C8A2A494A200B5D49180C8E817
:10042000E00690F68494186020A1DBA4F2B1F3C931
:1004300022F0023860A90F20C8A2A59485AB20C87D
:10044000A2E6F2A4F2B1F3C99BF00CC922F0062097
:10045000C8A24C41A4E6F218A594E5ABA4AB9180E8
:10046000186086AAA2FF86AF85968495E6AFA6F2AD
:10047000A4AAB195F027A90008BD8005297FC92E3F
:10048000F01D51950AF0026808C8E890EC28F00BBE
:1004900018986595A8A5966900D0CD18603860A910
:1004A00002C5AAD0DDB1953003C8D0F938B0DAC79B
:1004B000A75245CDCAA7444154C1F3A6494E505551
:1004C000D4BCA6434F4C4FD232A74C4953D423A798
:1004D000454E5445D2BFA64C45D493A749C6D1A694
:1004E000464FD2E9A64E4558D4BCA6474F54CFBC80
:1004F000A6474F2054CFBCA6474F5355C2BCA65465
:100500005241D0BDA64259C5BDA6434F4ED45FA7A8
:10051000434FCD20A7434C4F53C5BDA6434CD2BD3E
:10052000A64445C75FA74449CDBDA6454EC4BDA658
:100530004E45D719A74F5045CE23A74C4F41C42352
:10054000A7534156C540A75354415455D349A74ECC
:100550004F54C549A7504F494ED417A75849CF62A9
:10056000A74FCE5CA7504F4BC5FBA65052494ED467
:10057000BDA65241C4F4A6524541C4EEA65245530D
:10058000544F52C5BDA65245545552CE26A752557A
:10059000CEBDA653544FD0BDA6504FD0FBA6BFE74B
:1005A000A64745D4B9A65055D4BCA6475241504899
:1005B0004943D35CA7504C4FD45CA7504F53495488
:1005C000494FCEBDA6444FD35CA74452415754CFA8
:1005D0005AA7534554434F4C4FD2E1A64C4F434189
:1005E00054C558A7534F554EC4FFA64C5052494EC0
:1005F000D4BDA643534156C5BDA6434C4F41C4BFCD
:10060000A60080002A4552524F522D20A02BBF2C0D
:10061000DE02C6BA02CDD803250F3502260F3602F8
:100620002803FD02E80201FFA302007DA603C49E89
:100630000203230225022602240227021D021F02B2
:100640001E022002210222022A0229030129A3C23A
:10065000032B0F380EC42C0203120F3C0E0203446E
:10066000D20200CDA7D302C2033F2B0F3A00D9A775
:100670002C032B0F3A0E2C032B0F3AC72C03C4E389
:10068000C203C802CB020127A40300D5A7A503011A
:100690002DA3C2032B0F370EC42C0203120F3C0EE6
:1006A00002031D0F2F021E0F30021F0F3102200FF9
:1006B0003202210F3302220F34031C0E120EFA03F2
:1006C000004BA6220F2D0EF10286220F2E0081A6CE
:1006D000E8030129A3220F2D0E190EC3DC031A0E05
:1006E00002030E120E12C403DD120129A3CB030E66
:1006F000C802C603F8DBC20314021603C9BB02ED2D
:10070000009FA7B5031C0E030129A302012DA3031B
:10071000B8C3020312BB02030E12AB12F912F39913
:1007200003A49603ED9303EA90028E0399120296B6
:10073000150203DE8402DB12C402C20300BFA7F469
:1007400003C3F1038112004BA603BA12004BA6E4C7
:10075000030081A6030E120E030E120E12B8D5036B
:10076000ECD2030EC4C7CD03170218030EC2031246
:10077000BC0203140216030129A32B0F390E0058E3
:10078000A62C02012DA32B0F3B0E2C03ABC302039F
:1007900012BB02030E1BC39C0301FFA30201D3A2E1
:1007A000C902D4C30203C30203C3C8030E020081FB
:1007B000A603C4B30203C6C203BD0203120215039B
:1007C0000EC30203120E020301DFA201DFA24002E8
:1007D0004102430242033D023E030EC203120F3C9C
:1007E000BA02038280ACA4BABB9B474F54CF474F99
:1007F0005355C254CF535445D0544845CEA33CBD65
:100800003CBE3EBDBCBEBDDEAAABADAF4E4FD44F6D
:10081000D2414EC4A8A9BDBD3CBD3CBE3EBDBCBE80
:10082000BDABADA88080A8A8AC535452A443485295
:10083000A45553D24153C35641CC4C45CE4144D22A
:100840004154CE434FD3504545CB5349CE524EC46D
:100850004652C54558D04C4FC7434C4FC75351D251
:100860005347CE4142D3494ED4504144444CC553E2
:10087000544943CB50545249C753545249C700A915
:100880000084A485A538A59065A4A8A59165A5CDEB
:10089000E602900CD007CCE5029005F0034C3CB981
:1008A00038A590F50085A2A591F50185A3187501DD
:1008B000859AB5008599859765A4859BB50185982E
:1008C00065A565A3859CB50065A49500B50165A5E2
:1008D0009501E8E8E09290EE850FA590850EA6A31D
:1008E000E8A4A2D00BF01088C69AC69CB199919B3F
:1008F00088D0F9B199919BCAD0ED60A90084A485F4
:10090000A538A590F50049FFA8C884A2A591F501D6
:1009100085A3B500E5A28599B501E900859A869B76
:1009200038B500E5A49500B501E5A59501E8E8E036
:100930009290ED850FA590850EA69BB500E5A2854A
:100940009BB501E900859CA6A3E8A4A2D006F00B04
:10095000E69AE69CB199919BC8D0F9CAD0F2602082
:100960001BB820F4A9D035A4A7C49FB01CB18A85B8
:10097000A798C8B18AC884A8207EA94C62A90AAAEF
:10098000BD00AA48BD01AA4860A001B18A3010A5E7
:100990009F20D0A920E2A910C64C8DB74C93B74C2C
:1009A0005DA0A58A85BEA58B85BFA589A488858BFA
:1009B000848AA001B18AC5A1900DD00A88B18AC5E8
:1009C000A09004D001186020DDA920D0A94CB2A9C4
:1009D00018658A858AA8A58B6900858B60A002B1FD
:1009E0008A60A001B18A60602041BD4C71E4204161
:1009F000BD6C0A00A000A511D004A0FF841198606E
:100A0000A9E6A9E6B315BA28B482BACAAADFB777AD
:100A1000B64AB6CEB6A2B6A2B69FB7E0A9E7B7BDB2
:100A2000B1D8BC1AB765B260B1D8B78CA00BBBEA1D
:100A3000BAFABB5CBC27BC35BC4CBBE4B7ECB24BD0
:100A4000B3B5B265B282B26AB718B74CB792B840C4
:100A5000B3B5BC7EBC71BA4FBA75BA15A9EDBA3040
:100A6000B9B6BC94B9DCB463BBA3BBABAADFB91DF8
:100A7000ACB4ACBDACD4ACC4ACCBACDBB164AC9569
:100A8000AC83AC8CAC9EACF8ACEDACE2AB1EAD7AFA
:100A9000AD5EAEA2ACB4ACBDACD4ACC4ACCBACDB44
:100AA000ACB3ACA7AE25AD85AD81AD7AAD81AD78E7
:100AB000B048B066B0B9B011AFFFAFC9B01BB12E2E
:100AC000B124AFE0B11AB08AAFEAB14CB138B1424B
:100AD000B156AD18B0ADB0DCB021B025B029B02D05
:100AE000202EAB203EABB00620BAAB4CE3AA85ABC0
:100AF000AABD2FAC4A4A4A4A85ACA4A9B180AABD76
:100B00002FAC290FC5AC900DAAF014B180E6A92036
:100B100020AB4CFAAAA5AB88918084A94CE3AA60CB
:100B200038E91D0AAABD70AA48BD71AA4860A0FF95
:100B3000A911918084A9C884B084AA84B160A4A8B2
:100B4000E6A8B18A3043C90F9003F01360A200C831
:100B5000B18A95D4E8E00690F6C8A900AAF022C8A8
:100B6000B18AA28A85D685D8C89818750085D4A977
:100B70000085D785D9750185D59865D6A8A200A925
:100B80008385D286D384A818602028ACB19D99D2E1
:100B900000C8C00890F6186020F2ABA90224D2D099
:100BA0001505D285D26A900F18A5D4658C85D4A876
:100BB000A5D5658D85D560202EB9E6AAA5AA0A0A15
:100BC0000AC5A9B00DA888A207B5D2918088CA101D
:100BD000F8604C2CB920E0ABA5D53001604C32B99F
:100BE00020E0AA20F2AB4C56AD20D5ABD00160205E
:100BF0003AB9A5AAC6AA0A0A0AA888A207B1809586
:100C0000D288CA10F86020F2AB20B6DD4CF2AB20DF
:100C1000E0AA20F2AB60A5D32028ACA200B5D29107
:100C20009DC8E8E00890F660A000849E0A0A269E0F
:100C30000A269E186586859DA587659E859E60000F
:100C40000000000000000000000000008888888884
:100C50008888CCAA9999AA775566F24EF1F1EEEE02
:100C6000EEEEEEEEDDDDF2F2F2F2F243F2F2F2F24D
:100C7000F2F2F2F2F2F2F2F2F2F2F2F2F2F2F2F254
:100C8000F2F2F2F22006AC203BAD4CBAAB2006AC3F
:100C90002041AD4CBAAB2006AC2047AD4CBAAB20DE
:100CA00006AC204DAD4CBAAB20F2ABA5D449808543
:100CB000D44CBAAB602026AD304BF0491042202610
:100CC000ADF03DD0402026AD303B10342026AD3075
:100CD0002FF02D10302026AD302610292026ADF023
:100CE00024D01D2006ACA5D425E0F014D017200692
:100CF000ACA5D405E0F009D00C20F2ABA5D4F005EA
:100D0000A900A8F004A940A00185D484D5A2D6A04A
:100D1000042048DA85D24CBAAB20F2ABA5D4F0F669
:100D200010E3A9C030E1A4A988B180C92F90034C79
:100D300081AF2006AC2041ADA5D4602066DAB013A7
:100D4000602060DAB00D6020DBDAB007602028DBBD
:100D5000B00160202AB920D2D9B00160203AB9A5EB
:100D6000A9C9FFD00F2006ACA205B5E095D4CA10E2
:100D7000F94C16ACA98085B160E6B0A4A968684CAE
:100D80000BABA94085B124B11006A5AA85AFC6AAB0
:100D9000A900A8C5B0F00BC6B020E3ABA5D53023A1
:100DA000A4D48598849720E3ABA5D485F5A5D53048
:100DB0001285F620F2AB24B15005A90085B160661A
:100DC000D2B003202EB9A5F6C5D79008D0F5A5F569
:100DD000C5D6B0EFA598C5D99008D0E7A597C5D8D6
:100DE000B0E1205DAFA597A4982052AF2046AFA5F3
:100DF000D4A4D52052AFA58CA48D2052AF24B1101D
:100E000015A5AF85AA20F2ABA005B9D40091F5884D
:100E100010F8C884B160A005B1F599D4008810F825
:100E2000C884D24CBAABA5B0F0072096AE849885A2
:100E3000972096AE38E90185F598E90085F620F20D
:100E4000ABA5B1100B05B085B1A4D9A5D84C54AE53
:100E5000A5D6A4D7A6B0F010C6B0C4989035D004DB
:100E6000C597902FA498A59738E5F585D6AA98E55B
:100E7000F685D7901EA8D0038AF018209BAB18A542
:100E8000D465F585D4A5D565F685D524B110016066
:100E90004CBAAB2036B920E3ABA5D4A4D5D003AA75
:100EA000F0F1602098ABA5D48599A5D5859AA5D6F3
:100EB00085A2A4D784A3A4A9C0FFF00FA98085B1FF
:100EC000200BABA5D7A4D626B1B0072098ABA5D9E7
:100ED000A4D8C5A39006D008C4A2B00485A384A258
:100EE00018A5D465A2A8A5D565A3AA3898E58C85D0
:100EF000F98AE58D85FA38A900E5A285A238A59979
:100F0000E5A28599A59AE900859A38A5D4E5A28538
:100F10009BA5D5E900859C2047A9A5D32089AB389E
:100F2000A5F9E5D4A8A5FAE5D5AAA90225B1F00F3F
:100F3000A90085B1E4D79006D005C4D6B00160847D
:100F4000D686D74C16AC06F526F6A4F6A5F506F51A
:100F500026F61865F585F59865F685F660A900858D
:100F6000F785F8A010A5F54A900C18A2FEB5F97502
:100F7000DA95F9E8D0F7A20376F5CA10FB88D0E538
:100F8000602098AB20B6DD2098ABA2D620BCAF087D
:100F9000A2E220BCAFF01328F00DA000B1D4D1E044
:100FA000F00C9003A90160A9806028D0F760E6D416
:100FB000D002E6D5E6E0D0D2E6E1D0CEB500D0064C
:100FC000B501F005D601D600A8602098ABA5D6A43F
:100FD000D785D484D520AAD9A90085D285D34CBA87
:100FE000AB20E3ABA000B1D44CD1AF20F2AB38AD15
:100FF000E502E59085D4ADE602E59185D54CD5AF07
:101000002079BDA90085F22000D82099BD90C92083
:101010001CB92098ABA000B1D44CD1AF2098AB4CF8
:10102000D5AFA900F00AA908D006A90CD002A914CE
:101030004820E3ABA5D5D00EA5D4681865D4AABDC9
:101040007002A000F08B203AB920F2AB20E6D8A5C0
:10105000F385D4A5F485D5A0FFC8B1F310FB297F93
:1010600091F3C884D6D01720F2AB2056ADA5D48D0D
:10107000C005A90585D5A9C085D4A90185D6A90033
:1010800085D785D3A98385D24CBAABA2A8A0B020BE
:1010900098DD20F2ABAC0AD284D4AC0AD284D5203D
:1010A000AAD9204DAD4CBAAB42065536000020F20D
:1010B000ABA5D4297F85D44CBAAB20C3B020AAD924
:1010C0004CBAABA5B085C620E3ABC6C63009A5D4E3
:1010D00048A5D5484CC7B0A5B0486CD40020F2ABA9
:1010E00020E6B04CBAABA5D4297F38E93F1002A95D
:1010F00000AAA900A8E005B00715D594D5E8D0F559
:10110000A6D41014AAF011A2E02046DAA9C085E006
:10111000A90185E1203BAD604C00DC20F2AB20A7AB
:10112000BDB03F903A20F2AB20B1BDB03590302039
:10113000F2AB2077BEB02B902620F2AB20CDDEB0F4
:1011400021901C20F2AB20D1DEB017901220F2AB20
:1011500020C0DDB00D900820F2AB20E5BEB0034CFE
:10116000BAAB203AB92006ACA5D4D00BA5E0F00468
:1011700010ED30EE4C05AD1030297F85D4A5E02967
:101180007F38E94030DCA206C9059004A001D008F0
:1011900085F538A905E5F5A8CA88F006B5E0D0C2FE
:1011A000F0F6A080B5E04AB002A0009848A205B5CC
:1011B000E048CA10FA20D1DEB0A8A200A0056895C8
:1011C000E0E88810F92047AD20CCDDB00968108F29
:1011D00005D485D4D089202AB9A4A8C4A7900160D9
:1011E00020E0AAA5D26A9003202EB9382A85D230F1
:1011F0002FA4F5A6F6C8D003E830ED84D686D784B0
:10120000F586F6A497A698C8D003E830DB84D88684
:10121000D9205DAF2046AFA4F5A5F630CB4C34B253
:10122000A90085D685D7A4F584D8A5F685D9D0049C
:10123000C000F0B4A28E2081A838A597E58C85D493
:10124000A598E58D85D52016AC4CD9B120E0ABA58D
:10125000D48595A5D5859620E9ABA5D4A000919518
:1012600060A90685FB60A90085FB60A90085B62002
:1012700010B99003A8F00720D5ABA5D5A4D485B8A4
:1012800084B760A5A84820C7B6A5B785A0A5B8852E
:10129000A120A2A9A58A85F3A58B85F42019B7689A
:1012A00085A8A00084F22007B385B72005B385B8D0
:1012B0002005B385F52005B385F62005B3C901F0F7
:1012C00026A4F6C4F5B0058884F290E984F2C6F24B
:1012D000A001B1F3303D38A5F265F385F3A900858F
:1012E000B665F485F490BBA90085F5A5F5C5B6B043
:1012F0000B2005B3D0FBB0D8E6F5D0EFA94085A60A
:10130000E6F24C35B3E6F2A4F2B1F3C92C18F002C0
:10131000C99B602034B9A93F85C2203EABC6A890C6
:10132000052002BD85B42051DA2089BA204EB3A031
:101330000084A684F2203EABE6A8A5D2302020008F
:10134000D8B0142007B3D00F2016AC4C89B320F4CA
:10135000A9D001604C93B7A90085B42030B9202EE4
:10136000AB20BAABC6F2A5F285F5A2FFE82005B323
:10137000D0FAB00424A650F4A4F5A5A8488AA2F394
:101380002064AB6885A820A6AE24A6500FE6B62040
:1013900010B9B00D2007B390184CD0B22010B990FE
:1013A000082051DAA90085B4602007B390034C26C9
:1013B000B3E6F24C35B3A5C985AFA9008594A4A8BE
:1013C000B18AC912F053C916F07CC914F078C91556
:1013D000F06FC91CF06120E0AA20F2ABC6A824D2AD
:1013E000301620E6D8A90085F2A4F2B1F348E6F25F
:1013F000205DB46810F330C6209BABA90085F2A530
:10140000D6D004C6D730B7C6D6A4F2B1D4E6F2D04F
:1014100002E6D5205FB44CFFB3A494C8C4AF9009D2
:1014200018A5C965AF85AF90F0A494C4AFB012A958
:1014300020205DB44C29B42002BD85B5C6A84CBEA1
:10144000B3E6A84CBEB3A4A888B18AC915F009C9EF
:1014500012F005A99B205FB4A90085B560297FE63D
:10146000944C9FBAA98085F3A9B485F4A20786B5E8
:10147000A900A00820D1BB20B3BC20B6B34CF1BC5E
:10148000503A9BA00084A084A18884ADA97F85AE3A
:101490008DFE02A99B209FBA20C7B6A4A8C8C4A7E6
:1014A000B02DA5A848200FAC6885A8A5D2100620AD
:1014B000D5BA4C9BB420D5AB85A1A5D485A0A4A852
:1014C000C4A7F00320D5ABA5D485ADA5D585AE20A6
:1014D000A2A920E2A93024A001B18AC5AE900BD008
:1014E0001A88B18AC5AD9002D011205CB520F4A94C
:1014F000D00920DDA920D0A94CD2B4A5B5F0072091
:10150000F1BCA90085B58DFE024C19B786AA203022
:10151000B5A4AAC6AF300EB1953003C8D0F9C82023
:1015200025B54C11B5189865958595A8A5966900BF
:101530008596849560A0FF84AFE6AFA4AFB19548CF
:10154000C99BF004297FF003209FBA6810EB60A9C3
:1015500020209FBA2035B5A9204C9FBAA000B18A9F
:1015600085D4C8B18A85D520AAD920E6D8A5F38527
:1015700095A5F485962054B5A002B18A859FC8B17F
:101580008A85A7C884A82090B5A4A7C49F90F060BE
:101590002031B6C936F017203DB62031B6C937F034
:1015A00004C902B009202FB6209FBA4CA5B5202F40
:1015B000B6101A297F85AFA200A583A482200CB59E
:1015C0002035B5C9A8D0E7202FB64CAEB5C90FF06D
:1015D00018B036204DABC6A820E6D8A5F38595A552
:1015E000F485962035B54CAEB5202FB685AFA9222F
:1015F000209FBAA5AFF00A202FB6209FBAC6AFD061
:10160000F6A922209FBA4CAEB538E91085AFA200EA
:10161000A9A7A0E3200CB52031B6C93DB0C5A000F4
:10162000B195297F20F7A3B0BA204FB54CAEB5E6EF
:10163000A8A4A8C4A7B003B18A6068686085AFA2F7
:1016400002A9A4A0AF200CB54C54B5208AB820E064
:10165000AAA5D30980482025B8A90C2078B8200F66
:10166000ACA2D4A000208FB82044DAA90185D5A966
:101670004085D42010B9B003200FACA2D4A006201E
:101680008FB86848A9042078B868A00091C4B18ACE
:10169000C891C4B18AC891C4A6B3CA8AC891C460AB
:1016A00020C7B620D5ABA5D585A1A5D485A020A2FD
:1016B000A9B00568684C5FA920BEB62028B9A5BEB0
:1016C000858AA5BF858B60208AB8A9004C83B6A403
:1016D000A8B18A85C72041B8B03CF03AC5C7D0F55B
:1016E000A006209EB8A5E048A5C72089AB203BAD49
:1016F0002016ACA000209EB86810062035AD100959
:10170000602035ADF003300160A9102078B8203793
:10171000B7C908D032602026B92041B8B016D0F938
:101720002037B7C90CF00CC91EF008C904F004C971
:1017300022D014602020B92018B8B00BA4B288B110
:101740008A85A7C8B18A6020BEB62022B92010B908
:10175000B00320F7BAA90085A085A12018B820E21F
:10176000A9301220F8B820C0B820AFB8A90085B7BA
:1017700085B885B6604C50A0200FACA5D5F00920E7
:1017800010B9B0034CA3B660A59F85A76020A7B78A
:101790004C50A020A7B7206EBDA9B68595A9B785E6
:1017A000962035B54C74B920E2A9300785BB88B1C5
:1017B0008A85BA4C72BD53544F50504544A020E224
:1017C000A910F0A5BA85A0A5BB85A120A2A920E2F9
:1017D000A930A220DDA920D0A920E2A930974C1B76
:1017E000B820E0ABA5D485BCA5D585BD60208AB85E
:1017F00020E9ABA5D4F020A4A888B18AC917F003CA
:1018000020CAB6A5D485B320D5ABC6B3F006201048
:10181000B990F4604CA6B66020A2A9A002B18A8556
:101820009FC884A76085C72081B82041B8B008F060
:1018300006C5C7F00BD0F3A5C48590A5C5859160FA
:1018400060A58FC5919008A58EC59090023860A9BB
:10185000042072B8A003B19085B288B19085A188A8
:10186000B19085A088B190F00748A90C2072B868A3
:101870001860A8A2904CFBA82081B8A8A2904C7F29
:10188000A8A69086C4A69186C560A4A884B360A9C2
:101890000685C6B50091C4E8C8C6C6D0F660A906DC
:1018A00085C6A2E0B1909500E8C8C6C6D0F660A58E
:1018B0008C858E8590850EA58D858F8591850F6091
:1018C000A68686F5A48784F6A6F6E4899007A6F591
:1018D000E488900160A000B1F529FE91F5A002A274
:1018E00006A90091F5C8CAD0FAA5F518690885F5CA
:1018F000A5F6690085F6D0D0A00084BA84BB84B96F
:1019000084FB84B684B784B88884BD84114C41BDFF
:10191000A6A8E8E4A760E6B9E6B9E6B9E6B9E6B98B
:10192000E6B9E6B9E6B9E6B9E6B9E6B9E6B9E6B9BF
:10193000E6B9E6B9E6B9E6B9E6B9E6B9E6B9E6B9AF
:10194000A9008DFE0220A7B7A5BD301585A1A5BCB5
:1019500085A0A98085BDA5B985C3A90085B94CAE70
:10196000B6206EBDA937203DB6A5B985D4A900859E
:10197000D5209CB920E2A93019A9AE8595A9B985D1
:10198000962035B5A001B18A85D588B18A85D42045
:101990009CB9206EBDA90085B94C60A020AAD920B1
:1019A000E6D8A5F38595A5F485962035B560204148
:1019B00054204C494E45A020E9ABA5D4C905B01A26
:1019C0004820E0ABA5D40A0A0A0A4820E0AB681810
:1019D00065D4A868AA989DC40260203AB920E9ABF2
:1019E000A5D4C904B0F40A48A9008D08D2A9038D72
:1019F0000FD220E0AB6848AAA5D49D00D220E0AB6E
:101A0000A5D40A0A0A0A4820E0AB68A868AA981870
:101A100065D49D01D26020E0ABA5D48555A5D585C0
:101A20005620E9ABA5D485546020E0ABA5D485C889
:101A3000602016BAA5C88DFB02A911A20620C4BA5F
:101A4000A90C9D4A03A9009D4B032024BD4CB3BCA7
:101A5000A20686C120F1BC20E0ABA273A0BA86F337
:101A600084F4A206A5D429F0491CA8A5D420D1BB92
:101A70004CB3BC533A9B2016BAA5C8A2064CA1BAD7
:101A8000A6B4D00EA99B209FBAA6B4D005A5C220AB
:101A90009FBAA6B4A90520C4BA200ABD4CB3BCA6FF
:101AA000B54820C6BABD4A03852ABD4B03852B68BD
:101AB000A820B8BA984CB6BCBD470348BD460348F9
:101AC00098A0926085C086C14CA6BCA90420DDBA4E
:101AD00085B44C60A0A90820DDBA85B56048A00790
:101AE00084C120A6BCA90C2026BDA00384C068A088
:101AF0000020FBBBA90760A9FFD002A90048A904E8
:101B000020DDBA6848A90785C085CA20A6BCA00EFA
:101B10002010BD20B3BCAD80050D8105D038A28C4E
:101B200018A5807D0005A8A5817D0105CDE6029060
:101B30000AD005CCE50290034C1AB995019400CA6D
:101B4000CAE082B0DB2088BB2066B7A90085CA68DE
:101B5000F001604C50A0A90085CA2016B9A9082040
:101B6000DDBAA90B85C0A28038B500E5809D0005CF
:101B7000E8B500E5819D0005E8E08E90EB20A6BC6D
:101B8000A00E2010BD20B3BC20A6BCA58285F3A565
:101B90008385F4AC8D058898AC8C052012BD20B3EC
:101BA000BC4CF1BCA90820B6BB4C62BBA90420B652
:101BB000BBA9004C04BB48A2CE86F3A2BB86F4A20C
:101BC0000768A8A98020D1BB20B3BCA90760433A0D
:101BD0009B48A90320C4BA689D4B03989D4A0320E3
:101BE00019BD4C51DA2004BD4CEDBBA90385C020C2
:101BF0009FBC2004BD482004BDA86848984820E048
:101C0000AA2079BD20A6BC689D4B03689D4A03208D
:101C10000ABD2099BD2051DA4CB3BCA90C85C02067
:101C20009FBC2024BD4CB3BC209FBCA90D2026BD69
:101C300020FBBC4C2DBDA926201DBCBD4C03BC4DBA
:101C400003202FBD20A6BCBD4E034C2DBD209FBC44
:101C500020D5AB20A6BCA5D49D4C03A5D59D4D0396
:101C600020D5AB20A6BCA5D49D4E03A92585C04C8C
:101C700022BC209FBC20E0ABA5D4A6C14CA1BA20B9
:101C80009FBCA90785C0A0012010BD20B3BCA00047
:101C9000B1F34C2DBD2016BAA20620C6BAD0E3205F
:101CA00002BD85C1F00AA5C10A0A0A0AAA3001606C
:101CB0002018B920FBBC300160A0008CFE02C98056
:101CC000D00A8411A5CAF0034C00A060A4C1C98841
:101CD000F00F85B9C007D00320F1BC2072BD4C4085
:101CE000B9C007D0EDA25DE4C2D0E720F1BC4C53EF
:101CF000A020A6BCF00BA90C4C26BD20A6BCBD4361
:101D00000360E6A820D5ABA5D460A0FFD002A00058
:101D1000A9009D4903989D4803A5F4A4F39D45039C
:101D2000989D4403A5C09D42032056E460A000484E
:101D30009848200FAC6885D56885D420AAD94C1660
:101D4000ACA900A2079D00D2CAD0FAA00784C12086
:101D5000F1BCC6C1D0F960A20686F2BD67BD209F66
:101D6000BAA6F2CA10F3609B59444145529BA200A7
:101D7000F0E7A90085B485B5602098ABA5D485F3BC
:101D8000A5D585F4A4D6A6D7F002A0FFB1F3859718
:101D90008498A99B91F3859260A498A59791F3A943
:101DA00000859260203860A90424D41006A902D0CE
:101DB00002A90185F0A5D4297F85D4A95F1865FB08
:101DC000AAA0BE2098DD2028DB900160A5D4297F41
:101DD00038E940302BC90410CCAAB5D585F12910BB
:101DE000F002A9021865F1290365F085F086F1205B
:101DF000B6DDA6F1A90095E2E8E00390F92060DAEB
:101E000046F0900D20B6DDA271A0BE2089DD2060D5
:101E1000DAA2E6A00520A7DD20B6DD20DBDAB0855A
:101E2000A906A241A0BE2040DDA2E6A0052098DDC3
:101E300020DBDA46F0900918A5D4F004498085D457
:101E400060BD03551499393E0160442752BE468156
:101E50007543553F0796926239BF645964086740DD
:101E600001570796324090000000003F017453294B
:101E700025400100000000A90085F085F1A5D429C6
:101E80007FC9403015A5D4298085F0E6F1A97F25CA
:101E9000D485D4A2EAA0DF2095DEA2E6A00520A783
:101EA000DD20B6DD20DBDAB039A90BA2AEA0DF2041
:101EB00040DDB02EA2E6A0052098DD20DBDAB022BE
:101EC000A5F1F010A2F0A0DF2098DD2066DAA5F0E1
:101ED00005D485D4A5FBF00AA26BA0BE2098DD2016
:101EE00028DB603860A90085F1A5D430F6C93FF041
:101EF0001718690185F185E0A90185E1A204A9000F
:101F000095E2CA10FB2028DBA90685EFA2E6A00512
:101F100020A7DD20B6DDA293A0BF2089DD2060DAF6
:101F2000A2E6A0052098DD20DBDAA2ECA00520A720
:101F3000DD20B6DDA2E6A0052089DD2028DBA2ECAD
:101F4000A0052098DD2060DAA26CA0DF2098DD20BB
:101F5000DBDAA5D4F00EA2ECA0052098DD2066DA2D
:101F6000C6EF10C6A2ECA0052089DDA5F1F023384C
:101F7000E940186A186940297F85E0A5F16AA9013E
:101F80009002A91085E1A204A90095E2CA10FB20E5
:101F9000DBDA60400200000000303020206070700A
:101FA0000000000030303C7C7C7C646467E7C0C08B
:101FB0008080E0E000000000303038383838FCEC39
:101FC000EC0C04060602030300000000303030B0C1
:101FD000B0D8F8783818181810101C1C0000000031
:101FE000303030303030303020E0E0808000000091
:101FF00000000000CCB8A490A06000A00005F9BFCC
:00000001FF
