:100000003C3D3E3F3F3E3D3C3D3C3F3E3E3F3C3D18
:100010003D3C3F3E3E3F3C3D3C3D1F3C3F3E3D3C2A
:100020003E3F3C3D3D3C3F3E3F3E3D1E3C3D3E3F16
:100030003F3E3D3C3C3D3E3F3E3F3C3D3E1D3C3D0A
:10004000323D3E3F3F3E3D3C3D3C3F3E3E3F3C3DE2
:10005000393C3F3E3E3F3C3D3C3D3E3F1E3C3F3EEB
:100060002F3F3C3D3D3C3F3E3C3D3E111213141C96
:10007000173E3D3C3C3D3E3F3D111C0E22232425B6
:10008000233D3E3F3F3E3D3C3F102223232225247B
:10009000003C3F3E3E3F3C3D3E1824252524232284
:1000A000013F3C3D3D3C3F3E3F010702090805063C
:1000B0003D3E3D3C3C3D3E3F3E3F3C3D3D3C3F3E6A
:1000C0003C3D3E3F3F3E3D3C3D3C3F3E3E3F3C3D58
:1000D0003D3C3F3E3E3F3C3D3C3D3E3F3F3E3D3C48
:1000E0003E3F3C3D3D3C3F3E3F3E3D3C3C3D3E3F38
:1000F0003F3E3D3C3C3D3E3F3E3F3C3D3D3C3F3E28
:100100003C3D3E3F3F3E3D3C3D3C3F3E3E3F3C3D17
:100110003D3C3F3E3E3F3C3D3C3D3E3F3F3E3D3C07
:100120003E3F3C3D3D3C3F3E3F3E3D3C3C3D3E3FF7
:100130003F3E3D3C3C3D3E3F3E3F3C3D3D3C3F3EE7
:100140003C3D3E3F3F3E3D3C3D3C3F3E3E3F3C3DD7
:100150003D3C3F3E3E3F3C3D3C3D3E3F3F3E3D3CC7
:100160003E3F3C3D3D3C3F3E3F3E3D3C3C3D3E3FB7
:100170003F3E3D3C3C3D3E3F3E3F3C3D3D3C3F3EA7
:100180003C3D3E3F3F3E3D3C3D3C3F3E3E3F3C3D97
:100190003D3C3F3E3E3F3C3D3C3D3E3F3F3E3D3C87
:1001A0003E3F3C3D3D3C3F3E3F3E3D3C3C3D3E3F77
:1001B0003F3E3D3C3C3D3E3F3E3F3C3D3D3C3F3E67
:1001C0003C3D3E3F3F3E3D3C3D3C3F3E3E3F3C3D57
:1001D0003D3C3F3E3E3F3C3D3C3D3E3F3F3E3D3C47
:1001E0003E3F3C3D3D3C3F3E3F3E3D3C3C3D3E3F37
:1001F0003F3E3D3C3C3D3E3F3E3F3C3D3D3C3F3E27
:00000001FF
