:1000000000000000000000000000000000000000F0
:1000100000000000000000000000000000000000E0
:1000200000000000000000000000000000000000D0
:1000300000000000000000000000000000000000C0
:1000400032000000000000003C3C3C3C3C3C3C3C9E
:10005000001A00001600000000190000000033190B
:1000600032000000000000003C3C3C3C3C3C3C3C7E
:10007000001A0000160000000019000000003319EB
:1000800032000000000000003C3C3C3C3C3C3C3C5E
:10009000001A0000160000000019000000003319CB
:1000A00032000000000000003C3C3C3C3C3C3C3C3E
:1000B000001A0000160000000019000000003319AB
:1000C00032000000000000003C3C3C3C3C3C3C3C1E
:1000D000001A00001600000000190000000033198B
:1000E00032000000000000003C3C3C3C3C3C3C3CFE
:1000F000001A00001600000000190000000033196B
:1001000032000000000000003C3C3C3C3C3C3C3CDD
:10011000001A00001600000000190000000033194A
:1001200032000000000000003C3C3C3C3C3C3C3CBD
:10013000001A00001600000000190000000033192A
:1001400032000000000000003C3C3C3C3C3C3C3C9D
:10015000001A00001600000000190000000033190A
:1001600032000000000000003C3C3C3C3C3C3C3C7D
:10017000001A000016000000001900000000331AE9
:1001800032000000000000003C3C3C3C3C3C3C3C5D
:10019000001A000016000000001900000000331AC9
:1001A00032000000000000003C3C3C3C3C3C3C3C3D
:1001B000001A000016000000001900000000331AA9
:1001C00032000000000000003C3C3C3C3C3C3C3C1D
:1001D000001A000016000000001900000000331A89
:1001E00032000000000000003C3C3C3C3C3C3C3CFD
:1001F000001A000016000000001900000000331A69
:1002000032000000000000003C3C3C3C3C3C3C3CDC
:10021000001A000016000000001900000000331A48
:1002200032000000000000003C3C3C3C3C3C3C3CBC
:10023000001A000016000000001900000000331A28
:1002400032000000000000003C3C3C3C3C3C3C3C9C
:10025000001A000016000000001900000000331A08
:1002600032000000000000003C3C3C3C3C3C3C3C7C
:10027000001A000016000000001900000000331AE8
:1002800032000000000000003C3C3C3C3C3C3C3C5C
:10029000001A000016000000001900000000331AC8
:1002A00032000000000000003C3C3C3C3C3C3C3C3C
:1002B000001A0000160000000019000000003319A9
:1002C00032000000000000003C3C3C3C3C3C3C3C1C
:1002D000001A000016000000001900000000331989
:1002E00032000000000000003C3C3C3C3C3C3C3CFC
:1002F000001A000016000000001900000000331969
:1003000005000000000000003C3C3C3C3C3C3C3C08
:10031000001A000016000000001900000000331948
:1003200005000000000000003C3C3C3C3C3C3C3CE8
:10033000001A000016000000001900000000330041
:1003400005000000000000003C3C3C3C3C3C3C3CC8
:10035000001A000016000000001900000000330021
:1003600005000000000000003C3C3C3C3C3C3C3CA8
:10037000001A000016000000001900000000330001
:1003800005000000000000003C3C3C3C3C3C3C3C88
:10039000001A0000160000000019000000003319C8
:1003A00005000000000000003C3C3C3C3C3C3C3C68
:1003B000001A0000160000000019000000003319A8
:1003C000000000001C0012000000000000000000FF
:1003D0000000160000000000000000000000000007
:1003E000000000001C0012000000000000000000DF
:1003F00000000000000000000000000000000000FD
:00000001FF
