:100000000000000000000000303030303030303070
:100010003030303030303030000000000000000060
:100020000000000000000000303030303030303050
:100030003030303030303030000000000000000040
:1000400040303030303030303030303030303030A0
:1000500030303030303030303030303030303030A0
:100060004030303030303030303030303030303080
:100070003030303030303030303030303030303080
:100080003030303030303030303030303030303070
:10009000303030303030303030303030303030018F
:1000A0003030303030303030303030303030303050
:1000B0003030303030303030303030303030301E52
:1000C0003030303030303030303030303030303030
:1000D000303030303030303030303030303008195F
:1000E0003030303030303030303030303030303010
:1000F000303030303030303030303030303003302D
:1001000030303030303030303030303030303030EF
:100110003030303030303030303030303030083007
:1001200030303030303030303030303030303030CF
:1001300030303030303030303030303030300030EF
:1001400030303030303030303030303030303030AF
:10015000303030303030303030303030303030309F
:10016000303030303030303030303030303030308F
:10017000303030303030303030303030303030119E
:10018000303030303030303030303030303030306F
:10019000303030303030303030303030303030127D
:1001A000303030303030303030303030303030304F
:1001B000303030303030303030303030303030105F
:1001C000303030303030303030303030303030302F
:1001D000303030303030303030303030303030113E
:1001E000303030303030303030303030303030300F
:1001F000303030303030303030303030303004302B
:1002000030303030303030303030303030303030EE
:100210003030303030303030303030303030001C22
:1002200030303030303030303030303030303030CE
:100230003030303030303030303030303030000C12
:1002400030303030303030303030303030303030AE
:1002500030303030303030303030303030300018E6
:10026000303030303030303030303030303030308E
:100270003030303030303030303030303030001BC3
:10028000303030303030303030303030303030306E
:100290003030303030303030303030303030300E80
:1002A000303030303030303030303030303030304E
:1002B000303030303030303030303030303030303E
:1002C000303030303030303030303030303030302E
:1002D000303030303030303030303030303030301E
:1002E000303030303030303030303030303030300E
:1002F00030303030303030303030303030303030FE
:1003000030303030303030303030303030303030ED
:1003100030303030303030303030303030303030DD
:1003200030303030303030303030303030303030CD
:1003300030303030303030303030303030303002EB
:1003400030303030303030303030303030303030AD
:100350003030303030303030303030303030301EAF
:100360006830303030303030303030303030303055
:100370003030303030303030303030303030301994
:100380006830303030303030303030303030303035
:10039000303030303030303030303030303030305D
:1003A0006830303030303030303030303030303015
:1003B000303030303030303030303030303030303D
:1003C000000000000000000000000000000000002D
:1003D000000000000000000000000000000000001D
:1003E000000000000000000000000000000000000D
:1003F00000000000000000000000000000000000FD
:00000001FF
