:100000002920313938312057494C4C49414D532032
:10001000454C454354524F4E49435320494E432E7D
:1000200020414C4C20524947485453205245534597
:1000300052564544206C086C0A34108ECC22BD14F4
:100040000BBD08D13510AB0B2502A70B7E1DF700A9
:1000500034FF350034003EC80CC80EC804C8061A68
:10006000FF10CEBFFF869C1F8B8601B7C9008E6034
:100070004F4F5FED9808EC81ED98068C605726F1A4
:10008000BD13BD863FB7C80E8E9C006F80C639F782
:10009000CBFF8CC00026F4BDE0038ECD00BD141C48
:1000A0001F9881202206840F810923015FD736CC57
:1000B000A55ADDB7CCFF70DD7D0F7FC6FFDD55860D
:1000C0005597DEBD1515BD080B8D17BD70288ED058
:1000D000008601BD0130860CB7C80E03911C007E5E
:1000E000000CBD083ABD0EECBD08FBBD084ABD19A9
:1000F000727E0A9C96912A32B6CC15840F2704860C
:10010000019736963627238E06708601201A96911F
:100110002A18B6CC15840F270486029736963681A6
:100120000225078E067586028D037E00E4CE9CB103
:1001300097681F10BD06FD0F370F38BD0157BD135F
:10014000BD108E00004FABA431A810108C9000257C
:10015000F5A7C84E867F97918601976797258EBD34
:10016000D66F808CBE5426F9860AB7BDE29668C663
:1001700008BDF48034108ECC04BD141C35105D27EE
:100180000948CECC049136230444CECC021F899674
:10019000368B99195A26FA97368ECD00BD14241F36
:1001A00031BD140BBD08D1B7BDDEB7BDE08ECC228A
:1001B0001F89BD140BBD08D13DF7BDE18EBDD6BD75
:1001C00068E38ECC00BD141C4F5849584958495813
:1001D00049DD85FDBDDB8EBDD6A680A7883E8CBEE1
:1001E0001526F68E61EC8600BD013039C607BDF4D8
:1001F00083BD13DDBD60E2BD0157867F97919E3FB1
:100200009C3B2604AE842710860F8E62107E00A8C9
:10021000965B9A5C9A5B26F0BD080B8E6226860080
:10022000BD01307E000CB6C8062B05BD1515201685
:10023000BD13BD96674A2605BD15152003BD151FC4
:1002400086FF975797584F5FDD20DD22BD2C00BDFC
:1002500063968EBE839F77BD07D99F69A609840FD9
:10026000CE65A1A6C697DE6A08BD1E96FCBDD62641
:1002700015FCBDD826107FBDCF8678B7BDD08E2E99
:10028000278696BD7052BD19431021BD637C96250B
:100290002722D6685A271DD66786008E3F808D6636
:1002A00024038E3F4ABD70588D5C250886808E627F
:1002B000B47E00A88D50240BBD634086808E62C33F
:1002C0007E00A8BD13DDC6009E69A60CBD193CBD0D
:1002D00065DD8E20FB108E635FA6A0885A2705BDC2
:1002E000702B20F50F3A0F398610978886608E6242
:1002F000F47E00A8BD66340F3A0F39861097880F38
:10030000250C667E66E434129E69A609BD08E48465
:100310000F27088105270D1CFE3592BD632F811321
:1003200026F52007BD632F812426EC1A0135929E05
:1003300069A60FAB8811AB8812AB8815AB8814394E
:100340003436109E69A629BD08E41F89840F27084A
:10035000860E9E696F0C2002860FBD705535B60162
:1003600019067A6B63626B7A0D131616131B170945
:100370007A1F161F19677A131419675ABD19430F8C
:10038000CFBD1943100BBD19431CCFBD19431CA889
:10039000BD19436D0539CC0300DD94DD927FBEC3EA
:1003A0000F870F8F0F660F890F760F750FD20FEB28
:1003B0000FEDCC2080DD98DD96CC2000DD9ACC08B6
:1003C00000D320DDA3CC8000DD9C4F5FDD9E97A095
:1003D000DDA1DDE93996E9260BBD194364809691CC
:1003E0008A08979139EC01100800969185E826F467
:1003F00096E926F04F8E63FB7E01309E69A60B26A0
:100400000F96F026780CF0CC63E5BD06FD7E00E487
:1004100097E996918A1097911A10BD0B43BD0B2056
:10042000BD0BB31CEF9E43271ECC20A90D942A03BD
:10043000CC20B3ED02DCA3ED0ADC9CED0CDC96C312
:100440000403DDD0BD2703BD1DF79E696A0B27227B
:10045000A60B810A22048607972686038E64627E95
:1004600000A80F2696598502270886038E64477ECA
:1004700000A80FE9969184EF9791BD1DF77E00E4E7
:100480008603DE3FA74596912A0686D897912005D8
:10049000C658BD1939DC20DD229E96CC0806BD1356
:1004A000B9BD65B1CC0668BD06FD108E20A9969237
:1004B0002A04108E20B38E659AAF47CEBC03BD08C8
:1004C0006A1F31DE3FAF4BDC9810AE4BBD137D860B
:1004D000028E64D77E00A8DC9810AE4BBD1336AEFA
:1004E00047A680270E97310F26AF4786028E64C736
:1004F0007E00A80D912A0786DA97917E00E4867B1C
:10050000979186FF972686028E650E7E00A80F269D
:10051000BD015796DB2703BD19729E980D43270333
:10052000BD2C090F8DC613BD06ECBD688B2606BD1C
:10053000699EBD13DD96679E69E6082628D6685A2F
:10054000273A8803BD07E8E6082731D66786008E7C
:100550003F78BD705886018E3D88BD705886608E8C
:1005600065657E00A896674C916823028601BD07E9
:10057000E8E60827F297670C257E61EC86FF9791E5
:1005800086018E3D80BD70580F8DC613BD06EC866A
:10059000608E65977E00A87EE943070F3F7FFF17B7
:1005A0000000BB3322114466770099FF88117799C8
:1005B000443456DE69334C86336FC04A26FBDE690D
:1005C000B6BE54A74C334D8EBE55A6808CBE562267
:1005D00003AB8826A7C08CBE7C26EF35D6BE455817
:1005E0008600BD0130CEBE8331C4EF076FC01183DA
:1005F000BE9726F8DE69A64CB7BE54272281072392
:100600001144445FBD4546CB4026F9484840AB4CB9
:10061000270D974FD6B78601BD45460A4F26F539B7
:100620003450CEBE5E308816A680A7C01183BE7C33
:1006300026F635D0DE69334D8EBE55A6C0A7808C18
:10064000BE7C26F78EBE7C6F808CBE8326F99E69A9
:10065000A6094A2606BD68DFBD6620B6BE597FBE24
:1006600059202CBD018896B6448B2CA70CBD07ECF5
:10067000843F8B80D320ED0A9651810623028606A3
:100680003184BD38469E43AFA4109F43409B519791
:100690005126D0B6BE5827067FBE58BD4543B6BECC
:1006A000572703BD3843B6BE56200F810323028669
:1006B000033402BD1B139651A0E0975126EDB6BE40
:1006C0005B2703BD6D6DB6BE5A27067FBE5ABD4F70
:1006D00043B6BE5C2703BD4F40B6BE5D2703BD5A7F
:1006E000D00F3939DE3F8628A747B6BE6DB7BE7E2C
:1006F0008601B7BE7D6F499659850226020FF09696
:10070000918508102600BFBD688B265510BE455A3E
:10071000BD153A2608860F8E670C7E00A88677974F
:1007200091BD0157BD65B186018E672F7E00A8106F
:100730008E9C9DBD19430FCFBD19431CCFBD1943DE
:100740001CA88637A1A862270E96B681302408D649
:10075000B7869C1F016384BD699E9E696C087E619B
:10076000F181082212F6BE6D5481032201545CF11E
:10077000BE7E2403F7BE7E7ABE7E26198104B6BEF5
:100780006D24054444BD08C1B7BE7EB6BE7F810C52
:100790002403BD38407ABE7D2705B6BE7C2627B629
:1007A000BE5EB7BE7DB6BE55271CB6BE7C81082492
:1007B00015B6BE5FB1BE552303B6BE55BD4540401C
:1007C000BBBE55B7BE559688811024020C8896246E
:1007D0004C81D22306C606BDF4834F9724DE3F6AC0
:1007E00047260DC602108EBE55BD69758628A747DF
:1007F0009E69A6094A2631A649262D96D22616ECD0
:100800000110830020240EA6088101231BEC011097
:10081000830010251396918508260D8601A749BDF2
:1008200068DFBD6620BD4555B6BE54273C96D2262E
:1008300038BD454927338E6887BCBDCD2709CC1804
:10084000FFFDBDD1BD374086FF972D86058E6853CD
:100850007E00A886FF972D86048E685F7E00A80F15
:100860002D86068E66F77E00A88E6887BCBDCD26D5
:10087000058601B7BDD0965781E22603BD4F468657
:100880000F8E66F77E00A8F044FF06B6BE7CBBBEA6
:1008900055BBBE56BBBE57BBBE59BBBE58BBBE5AEE
:1008A000BBBE5CBBBE5D3934168605E6095A8D08B1
:1008B0002604860AA70C35963406E0E4250226FABB
:1008C00035863476CE69D7BD07D9300D8B04108EAE
:1008D0000009E6C6E78033C810313F26F535F63407
:1008E00056200834566C098DBEA6093402810B23AC
:1008F00002860BCE69D78B04300DE6C6E78033C87D
:100900001011836C4726F3E6E486058DAB260A8D2D
:10091000B1860A8DA326028DA9A6E4800B24014F7F
:10092000974F8ECC1CBD141ABD08D1A1E4221A1E0B
:1009300089BD08D1A1E42302A6E43404A0E04CF66A
:10094000CC21C40F3DDB4FD74F32618ECC18BD1484
:100950001ABD08D19B4F974F27191F98BD08D191F9
:100960004F2402974F964FC603BD07D9310D8D0511
:100970004A26F435D634328E69D7A6852B0AABA425
:100980002510A184220C2008ABA42406A101250275
:10099000A7A431213088108C6C4726DE35B29E69C1
:1009A000A609BD08E4840F81052626CC0225BD14C6
:1009B0003A86970F26BD13DDBD70553510AF4786BB
:1009C000C08E69C77E00A89E69BD5FC1DE3F6ED83C
:1009D00007BD154D7E1568140000000B0B0A0A12A6
:1009E00000111111110012030000000000000001AD
:1009F00000020303030002060000000000000304DD
:100A000000040404040604140000000000000000B8
:100A100000000000000000140000000000000000C2
:100A2000080000000000000A0000000000070405A4
:100A30001605050506000303000000010101010180
:100A4000010101010101010A000000030303060383
:100A500000030303040D040300000002020202036A
:100A6000060303030300041E0000001E1E191410D9
:100A700010101010101010040000000404030305EF
:100A8000050404040404046000030216161E242E48
:100A900030323436383A3C010000000000000101D9
:100AA00001010101010101FF0010005070B00000C0
:100AB00000000000000000FF10FCFEFF4A3A2A2A56
:100AC00028262422201E1C300000002020282C3044
:100AD00030303030303030030000000101010202BC
:100AE00002020202030303010000000000000101F2
:100AF00001010101010101FF0008064062E002124C
:100B0000181E242A30363C60000804080C1C2428D7
:100B10002C3034383C4044FF08FEFEFF2A221E1CC5
:100B20001A18161412100E6000080216161E202243
:100B30002426282A2C2E30280AFEFF1919191918E4
:100B4000171615141312113F0000001F1F1F3F3FFF
:100B50003F3F3F3F3F3F3FFF30F8FCF0D4C4A494F9
:100B6000908C8A898887861403FFFF0F0F0D0C0A6B
:100B700009080706050403C828F4F8FAF0DCC8C819
:100B8000C0B8B0A8A29A92FF020000FF600C060550
:100B900004040404040403FF0000000F1F1F1F1FB0
:100BA0001F1F1F1F1F1F1F681801012020384858D2
:100BB00058585858585858F2D001028080C8D3D499
:100BC000D7DADDE0E3E7EAFF00000030304050A074
:100BD000A0A0A0A0A0A0A0FF000408282838505082
:100BE000F85060708090A050000202010820242874
:100BF0002C2C303030303CFF000000F0F0E0D0C052
:100C0000B0A8A098908880FF00000060605040303D
:100C10002C2824201C1C1CFF0000001010100F0E9C
:100C20000D0C0B0A090808FF00000040404040403E
:100C300040404040404040FF0000000101010101F0
:100C400001010101010101010C28261A1B250C1BC1
:100C5000250C252613241913261702010C581617E4
:100C6000251B192017160C172A151E27251B2817B8
:100C70001E2B0C182124010C68291B1E1E1B131F80
:100C8000250C171E1715262421201B15250C1B20AB
:100C9000150F02010C78142B0C1727191720170CAD
:100CA000220F0C1C1324281B250C1320160C1E13BA
:100CB0002924172015170C170F0C16171F132402C1
:100CC000010CA81521222B241B191A260C030B0A30
:100CD000030C291B1E1E1B131F250C171E17152680
:100CE0002421201B15250C1B20150F010CB8131EE9
:100CF0001E0C241B191A26250C2417251724281727
:100D0000160017223096208E6D4D444444847FE6B1
:100D100086D72D448E6D3DE686A686DDD3DDD5DDF6
:100D2000D7E6475CC10223015FE7478E9CD3583A60
:100D3000CCAAAAED8486048E6D057E00A822BBBBDA
:100D4000BBBBBB88888888888822222222C7C7C765
:100D5000C7C7C78747470707070707070707070FDB
:100D60001F171717171717171717579787974F86B4
:100D700055D6B6C40326015C3D1F981F03BD017004
:100D80001AD26DA81F00EF0ABD07EC841F8B5CA769
:100D90000C8611A788144F5FED0EED88109F41332C
:100DA000C950000A4F26D63996DB2614B6BEC32694
:100DB0000F96918508260996B52705BD19436DC381
:100DC0004F35868EBEF496918402A7478677979119
:100DD000C656E188CE270E96B781192408D6B88664
:100DE0009C1F016A8496D2102700848ECC26BD14E5
:100DF0000BBD08D19E69A1092575F6CC25C40FD07D
:100E0000D2220D9692989E2B66C609BDF483200FC0
:100E10008E6F1EC10126038E6F22BD37402050BD4C
:100E20000157BD13BDBD65B186018E6E307E00A831
:100E30000CDBBD3240BD1972BD19430FCFBD194344
:100E40001CCFBD19431CA8BD1E969E696C09BD68C8
:100E5000A76C09BD68A7A6094CBD08E41F898604D4
:100E6000BD70588620BD15689E696C087E61F1C60C
:100E70001DBD455286018E6E7C7E00A89E492705C9
:100E8000BD01CD20F78602BD6F26BD13DDCEBE832A
:100E900086FF974F8E000010AEC12716EC2810B3C6
:100EA000455C270EEC26260AA62C914F2204974F6C
:100EB00030A41183BE9726DF308427334F5FDD9E39
:100EC000DDA196B6840740AB0C80148131240286E4
:100ED00031816823028668979CCC20110D942A03E7
:100EE000CC7015979A34049798EC0AA0E02004DCA3
:100EF000208B80DD20BD2C0086018E6F837E00A8B4
:100F00005F96E92702C610DE3FEA47D7918628B7E9
:100F1000BEC38E6F187E00A87FBEC37E00E480042F
:100F20009007800490083510AF4DA74B108EBC7110
:100F30008E9C26EC81EDA18C9C3626F78607A74C6B
:100F4000A64B8E6F487E00A88E9C268D0C8C9C36FE
:100F500026F96A4C2AEA6ED80DA684E684C407E115
:100F60004C23014AE684545454C407E14C230280C4
:100F700008E6845454545454C406E14C230280407F
:100F8000A78039A6473402BD106EBD1045BD10CAFA
:100F9000DE3F3502A747969184DDAA4797918601E7
:100FA0008E6FA67E00A896918A2097918602BD8FAB
:100FB000007E6F0000000000000000000000000044
:100FC0000000000000000000000000000000000021
:100FD0000000000000000000000000000000000011
:100FE0000000000000000000000000000000000001
:100FF00000000000000000000000000000000000F1
:00000001FF
