:100000007E006F7E00A97E00B87E00DD1212127E97
:1000100000EE7E01637E01A97E01BA7E02577E0258
:100020007E7E03427E03617E03667E03487E050872
:100030007E04F77E04377E044D7E04677E047D7E59
:1000400004977E04AD7E04C77E04DD7E05197E051F
:100050003A7E05577E059E7E03077E02087E02C219
:100060007E05AC7E066E7E06647E063F7E065134BB
:100070007610DF0210CE0099357610CE9C003476D3
:100080003476347634763476347634763476118C2D
:10009000000026EA10DE0235F60000000000000035
:1000A0000000000000000000008E9C00C6396F8038
:1000B000F7CBFFACE426F7395656563406C4C0D702
:1000C000DFCA3FF7C80E863524028A08B7C80F86F4
:1000D0003435045624028A08B7C80D3582108EF9CB
:1000E000338E9CF0E6A0E7808C9D0026F739340221
:1000F0009620D6221F019621DD24301C35021F894F
:10010000DD0AED81ED81308900FC9C2423F49620EA
:10011000D6231F01D725DC0AED81ED81308900FC53
:100120009C2423F496208001D622C0041F01D623EC
:10013000CB04DD24DC0A3089FF00ED843089010026
:10014000ED819C2425F09621D622C0041F0197241E
:10015000DC0A30890100ED843089FF00ED819C24A8
:1001600025F039347E10DF0210CE4CE5DC4B9E4B7F
:10017000109E4BDE4B1F8B347E347E347E347E34B7
:100180007E347E347E347E347E347E347E347E34DF
:100190007E347E347E347E347E347E347E347E34CF
:1001A0007E341210FE9C0235FE3402863F9ADFB781
:1001B000C80E35029ADFB7C80E3934411AFF86FFE0
:1001C0009764AE84273EEC84273A0C64A60226F29C
:1001D000A6A4A702CE9E00D664A7C5CE9C66446C9A
:1001E000C6EC21ED0BEC23ED8814EC25ED8816EC24
:1001F00027ED8810EC29ED88124FA70EA70FA70D49
:1002000035414C3935414F3934411AFF86FF976CDF
:10021000AE84273FEC84273B0C6CA60226F2A6A4F2
:10022000A702CE9EB0D66CA7C5CE9C6E4A446CC6C3
:10023000EC21ED0BEC23ED8814EC25ED8816EC2772
:10024000ED8810EC29ED88124FA70EA70FA70D35EA
:10025000414C3935414F3934251AFFAE84271A10E5
:10026000AE842715E60226F3A702108E75A048EC8F
:10027000A6ED093501860135A435014F35A4344179
:100280001AFF86FF9764AE842734EC8427300C6411
:10029000A60226F2A6A4A702CE9E00D664A7C5CECB
:1002A0009C66446CC6EC21ED0BEC23ED8814EC2528
:1002B000ED8816EC27ED096F0E3541860139354181
:1002C0004F3934411AFF86FF976CAE842735EC8492
:1002D00027310C6CA60226F2A6A4A702CE9EB0D6A9
:1002E0006CA7C5CE9C6E4A446CC6EC21ED0BEC238A
:1002F000ED8814EC25ED8816EC27ED096F0E3541DD
:1003000086013935414F3934011AFFAE84272FEC6D
:1003100084272BA60226F4A6A4A702EC21ED0BEC61
:1003200023ED8814EC25ED8816EC27ED8810EC29D8
:10033000ED88124FA70EA70FA70D35014C393501D7
:100340004F39BD0348C40F3997169618990146D600
:1003500017D9083402EBE08900DD1759D917961632
:1003600039CEB0802003CEB000E6C42F1134011A7C
:10037000FFBD100F6FC43501ECC814BD3143391CEB
:10038000FE204B1CFE20079B331997338600340256
:10039000840F99321924090C319732BD05D92011E7
:1003A0001F8984F091322307D732BD05D92002D7A7
:1003B000323502340246464646840F2706BD05D92B
:1003C0004A26FA350284F09B321997328600993119
:1003D00019973186009930199730391CFE204B1C33
:1003E000FE20079B3B19973B86003402840F993A05
:1003F0001924090C39973ABD05CD20111F8984F0C5
:10040000913A2307D73ABD05CD2002D73A350234B9
:100410000246464646840F2706BD05CD4A26FA35D4
:100420000284F09B3A19973A8600993919973986D0
:100430000099381997383996348109230A80099729
:10044000348609BD03873927FD0F3420F6963581A0
:1004500009230A800997358690BD03873927E70F5E
:10046000354848484820F296368109230A80099782
:10047000368609BD03833927CD0F3620F69637819E
:1004800009230A800997378690BD03833927B70F60
:10049000374848484820F2963C8109230A8009974A
:1004A0003C8609BD03E33927FD0F3C20F6963D81CC
:1004B00009230A8009973D8690BD03E33927E70F9A
:1004C0003D4848484820F2963E8109230A80099712
:1004D0003E8609BD03DF3927CD0F3E20F6963F81CA
:1004E00009230A8009973F8690BD03DF3927B70F9C
:1004F0003F4848484820F21AFFBD0437BD044DBDAF
:100500000467BD047D1C00391AFFBD0497BD04AD0E
:10051000BD04C7BD04DD1C003996ED84382704985E
:10052000EA271597EA27118600BD01A9962A819925
:1005300024068B0119972A394F398E054B108E9E50
:10054000808605EE81EFA14A2AF93945F0440C1066
:100550001010100A000081CC1010FD9E84FD9E86B4
:100560000F499648270A0C49B79E84860AB79E858C
:100570009647D64926054D27050C49B79E869646CF
:10058000D64926034D2703B79E87860AB79E88DC87
:1005900044B79E8AF79E898E9E80BD380039CC0074
:1005A000008E9C30ED818C9C4025F9394F5F8E9CEC
:1005B00064ED818C9C7525F98E9E00ED818C9E40AA
:1005C00023F98E9EB0ED818C9EF023F939D67C5AAA
:1005D00026040C7FD67BD77C39D6785A2602D67B68
:1005E000D77839414C49454E204152454E4120492A
:1005F000532028432920434F5059524947485420FB
:100600003139383544554E43414E2042524F574EB2
:100610002E20414C4C2052494748545320524553B8
:1006200045525645442A2A2A444F4E275420494EC3
:100630004652494E4745204F4E204D452A2A2A1002
:100640008E9E0096656FA6108E9C66A602446AA6D2
:1006500039108E9EB096656FA6108E9C6EA6024ACB
:10066000446AA6394FD6C8FDBD34D6C620084FD639
:10067000A8FDBD34D6A65849FDBD324FE608FDBDE4
:1006800030E6065849FDBD2E8630B7BD38BDE803BB
:100690008633B7BD38BDE8038603B7BD38BDE80370
:1006A0007FBD38BDE80339FDFDFDFDFDFDFDFDFD10
:1006B000FDFDFDFDFDFDFDFDFDFDFDFDFDFDFDFD6A
:1006C000FDFDFDFDFDFDFDFDFDFDFDFDFDFDFDFD5A
:1006D000FDFDFDFDFDFDFDFDFDFDFDFDFDFDFDFD4A
:1006E000FDFDFDFDFDFDFDFDFDFDFDFDFDFDFDFD3A
:00000001FF
