:1000000000000000000000000000AAAAA00000A05C
:1000100000A000A0A0A0A000A0AAA0A000A0000096
:10002000A000AAAAAAA00000000000000000000092
:10003000000000000000000000000000AAAAA000CC
:1000400000A000A00000A0A0A00000AAA000000046
:1000500000000000000000000000000000000000A0
:10006000000000050D4073050D40B4050D407305FB
:100070000D40F50001110000006666600000CCCC68
:10008000C000000111000011911191105119991136
:1000900050501191105050011100500001110000FA
:1000A0000011011000001101100005550555000058
:1000B000000000000001110000006666600000CC36
:1000C000CCC000000111000011911191105119993B
:1000D0001150501191105050011100500011110099
:1000E0000000110110000555011000000001100072
:1000F0000000055500000111000000666660000068
:10010000CCCCC000000111000011911191105119C7
:1001100099115050119110505001110050000111CF
:100120001000001101100000110555000011000021
:10013000000555000000FFFFFFFFFFFFFFFFFFFF6F
:100140007E459BFF010113009922551199225511FB
:10015000992255119922551199225511AACCAACC50
:10016000AACCAACCAACCAACCAACCAACCAACCAACCDF
:1001700099779977997799779977997799779977FF
:1001800099779977115511551155115511551155EB
:100190001155115511551155FFEEDDCCBBAAFFEEDF
:1001A000DDCCBBAAFFEEDDCCBBAAFFEE116677BBB0
:1001B000AA116677BBAA116677BBAA116677BBAA9C
:1001C00033553355AA33553355AA33553355AA33CE
:1001D000553355AA4148415C41704184419841AC36
:1001E00041C0419820434F5059524947485420310B
:1001F0003938322057494C4C49414D5320454C45E4
:100200004354524F4E49435320494E432E203430DD
:100210008EB3EDBFB3E43189008110AF84108CB888
:10022000F7240430A420EF108E000010AF8410BF1C
:10023000B3E635B034668D37252710BFB3E6AF2659
:10024000EC84ED223DE728332DEF248D16CE433884
:10025000EF29BDD039840748CE41D4ECC6ED2B3010
:100260002235E6342610AE246FA05A26FB35A6347C
:100270001010BEB3E4270EAEA4BFB3E4BEB3E6AF26
:10028000A41CFE35901A013590AE2934103001AF10
:100290002996848407AE2B3086BFB3E8AE26E628C5
:1002A00035C03476AE0210AE24A6C42A13847FBDB6
:1002B00042F5ECC1B1B3EA241C53E4A6E7A620F250
:1002C000854026138D2FECC1B1B3EA2408E486EAF9
:1002D000A6E7A620F135F6843F8D1AECC1B1B3EA4A
:1002E00024F3E48627F5E69FB3E87CB3E9E45FEA0C
:1002F000A6E7A620E6CE43BB4A48EEC6F7B3EA39E6
:100300003410AEA4AF9FB3EBBEB3E4AFA410BFB341
:10031000E410BEB3EB3590108EB3E6200CBD4289DD
:10032000118343BA270DBD42A210BFB3EB10AEA498
:1003300026EB39BD430020F1438346864484428244
:1003400041814787444684428643824183458148B0
:100350008547884487454284468547824886438747
:100360004188428344814547824684854887438645
:10037000444288458341844382474685488142837D
:100380004487418645884346844881478544824165
:1003900045834286884387468448850781040582D1
:1003A0000183028603880687088407850481050186
:1003B000828302038808848707040043CB440544F2
:1003C0003F447944B344ED4527456100F0060F09E9
:1003D0000F0CF013F0170F180F1DF022F0250F2B44
:1003E000F02E0F30F0320F3CF03E0F430F45F04837
:1003F000F04C0F500F51F05AF05D0F600F65F06A2E
:100400000F6E0F73F0010F03F008F00F0F12F014CE
:100410000F1B0F1EF020F0220F2DF02F0F330F3582
:10042000F0390F3DF043F0470F4A0F4EF053F055AF
:100430000F5B0F5BF0630F68F06DF0710F730F04CB
:100440000F07F009F00A0F14F0150F1C0F1FF02111
:10045000F0230F290F2EF0340F36F03AF03D0F4203
:10046000F0440F490F4DF055F0570F590F5CF061F4
:10047000F0680F6AF06D0F720F000F02F00AF00CB7
:100480000F10F0160F1AF01E0F210F23F02C0F2F54
:10049000F033F0360F38F03B0F420F46F049F04D85
:1004A0000F52F0540F5A0F5DF0610F64F0690F6C3A
:1004B000F070F0020F06F0080F0EF0130F16F0198F
:1004C000F01D0F240F27F029F02B0F300F31F03CD7
:1004D0000F3EF0400F41F04BF04E0F520F57F059C6
:1004E000F05E0F62F0650F67F06B0F6FF001F007C1
:1004F0000F0B0F0DF0110F15F01A0F1CF0200F2528
:10050000F02AF02D0F310F32F0380F3FF044F04653
:100510000F4B0F4FF054F0560F580F5FF060F0661E
:10052000F06C0F6F0F71F0030F04F00D0F0FF0114F
:10053000F0120F18F01F0F26F0270F280F2CF034A1
:10054000F0370F3BF03F0F40F0450F480F4AF05394
:100550000F56F058F05C0F620F640F6BF0700F7263
:10056000F005F0050F0BF00E0F100F17F0190F1B11
:10057000F024F0260F28F02A0F350F37F039F03A23
:100580000F410F47F04CF04F0F50F0510F5EF05FEE
:100590000F63F0660F670F69F06EF0BD420E9E218B
:1005A0002752BDD05446079E21CC0000108E00007B
:1005B00034063406EC02ED88143121108C000F2231
:1005C0000510A3E42711108E0000EDE43410AE02F4
:1005D000BD4234AF643510EC62ED02AE8426D532F4
:1005E00064BD4639BD4317BEB3E6270886018E4574
:1005F000E17ED0669E212709EC8814ED02AE8426A8
:10060000F7BDF0097ED063CC4143BDD04B8648A7EF
:1006100047C612BDD0066A47270886018E46117E5E
:10062000D0668624A747C612BDD0066A4710278A1F
:100630003286028E46267ED0669E21272310AE0289
:10064000ECA48804C8041A10FDCA06EE22FFCA02F0
:10065000EC04FDCA048606B7CA001CEFAE8426DD92
:1006600039FFFFFFFFFFFFFFFFFFFFFFFFFFFFFF60
:10067000FFFFFFFFFFFFFFFFFFFFFFFFFFFFFFFF8A
:100680007E468C7E473F7E46E67E4A7934308EBB7E
:10069000E49FC031883310AF84108CBDE224043055
:1006A000A420F0108E000010AF84109FBC109FBEDD
:1006B00035B03420DEC0271210AEC4109FC0109E8B
:1006C000BC10AFC4DFBC1CFE35A01A0135A034201D
:1006D000DEC027F610AEC4109FC0109EBE10AFC47F
:1006E000DFBE1CFE35A03476BD46CE2540A7C8121D
:1006F000EC04AE02ED4BA744D6A7E745E04C250439
:10070000E101250BE68454E746EB4CE7452002E780
:1007100046EC84ED4DC601E7C8118804C804ED4FCE
:10072000AE02AF42CC1000ED486F478D0235F6AEF9
:1007300042E64DA64E33C813AFC13A4A26FA3934C1
:1007400076BD46B22544A7C812EC04AE02ED4BA715
:1007500044D6A7E745E04C2504E101250BE6845487
:10076000E746EB4CE7452002E746EC84ED4DE7C851
:1007700011C6018804C804ED4FAE02AF42CC01009F
:10078000ED486F478610A74A8DA535F6AEA1BFCAC2
:1007900002FDCA04FFCA00D3BAAEA1BFCA02FDCA95
:1007A00004FFCA00D3BAAEA1BFCA02FDCA04FFCA81
:1007B00000D3BAAEA1BFCA02FDCA04FFCA00D3BAB1
:1007C000AEA1BFCA02FDCA04FFCA00D3BAAEA1BF20
:1007D000CA02FDCA04FFCA00D3BAAEA1BFCA02FD55
:1007E000CA04FFCA00D3BAAEA1BFCA02FDCA04FF41
:1007F000CA00D3BAAEA1BFCA02FDCA04FFCA00D361
:10080000BAAEA1BFCA02FDCA04FFCA00D3BAAEA1E4
:10081000BFCA02FDCA04FFCA00D3BAAEA1BFCA0252
:10082000FDCA04FFCA00D3BAAEA1BFCA02FDCA0402
:10083000FFCA00D3BAAEA1BFCA02FDCA04FFCA00F4
:10084000D3BAAEA1BFCA02FDCA04FFCA00D3BAAE72
:10085000A1BFCA02FDCA04FFCA001CEF35A0FDCA31
:1008600004FFC9FFD3BAFDCA04FFC9FFD3BAFDCA4A
:1008700004FFC9FFD3BAFDCA04FFC9FFD3BAFDCA3A
:1008800004FFC9FFD3BAFDCA04FFC9FFD3BAFDCA2A
:1008900004FFC9FFD3BAFDCA04FFC9FFD3BAFDCA1A
:1008A00004FFC9FFD3BAFDCA04FFC9FFD3BAFDCA0A
:1008B00004FFC9FFD3BAFDCA04FFC9FFD3BAFDCAFA
:1008C00004FFC9FFD3BAFDCA04FFC9FFD3BAFDCAEA
:1008D00004FFC9FFD3BAFDCA04FFC9FFD3BA1CEF96
:1008E00039E6A811C010505858588E485E3AEC2787
:1008F000DDBA9645C6121F03CC00001A10FDCA01CE
:10090000EC2FFDCA06EC2B6E84CE98BC10ACC4272D
:1009100008EEC426F71A1020FEECA4EDC4DCC0EDEE
:10092000A4109FC031C439EC28830100A1282603FC
:10093000E72939BD48E196592608DC5EA724EB2655
:10094000E725A62E97C2EC2883010081012212CE52
:1009500098BE20B86A2A27B1A62E97C2EC28C301F8
:100960000097BBED284497C5E6A8122A0140A727A7
:1009700097BAE6262602D7C596BBE626D7B93DDD4F
:10098000C3E6254F93C3DBC589002604C118220E98
:100990000AC20AB9DBBB890026F6C11823F2E72C8C
:1009A00096B9D6BA2B2C3DDDC3E6244F93C34D2612
:1009B00004C10722410FB80AC20CB8DBBA8900266D
:1009C000F6C10723F2E72BD6B896BB3DEB2CE72CFC
:1009D0002026503DEB2DEB2489002604C18F2314E3
:1009E0000FB80AC20CB8DBBA89FF26F6C18F22F213
:1009F000E02D20D1E02DE72B30A813E62ED0C258F1
:100A00003A96C24AD6BB3DEB2C8900270A0AC22778
:100A100048D0BB820026F6C1EA24F296C24AD6BA72
:100A20002B193DEB2DEB2B8900270A0AC2272AD070
:100A3000BA820026F6C18F22F2201A503DDDC3E6AD
:100A40002B4F93C34D270A0AC2270ED0BA82FF2626
:100A5000F6C10723F296C226037E4909A7A8118092
:100A60001040C60D3DC3478C3426CE0A0AEC2F1A1F
:100A700010FDCA06EC2B318439109EBC270BBD48F3
:100A8000E1BD495410AEA426F5109EBE2708BD490D
:100A90002710AEA426F839FFFFFFFFFFFFFFFFFF7F
:100AA000FFFFFFFFFFFFFFFFFFFFFFFFFFFFFFFF56
:100AB000FFFFFFFFFFFFFFFFFFFFFFFFFFFFFFFF46
:100AC000FFFFFFFFFFFFFFFFFFFFFFFFFFFFFFFF36
:100AD000FFFFFFFFFFFFFFFFFFFFFFFFFFFFFFFF26
:100AE000FFFFFFFFFFFFFFFFFFFFFFFFFFFFFFFF16
:100AF000FFFFFFFFFFFFFFFFFFFFFFFFFFFFFFFF06
:100B00007E4D107E4B3650C2500E5026D00108113B
:100B100000C801080400C801041401011300D00139
:100B2000030101041501041300D00104150108118B
:100B300000D001081900B6BE7034022743BDD06C46
:100B40004BFB50C64BC92738C61ABDD0392A02C63E
:100B5000DC867EBDD0428B06ED04A70AE70CB6BE4C
:100B600066BDD03FA749B6BE5EBDD03F448900A751
:100B70004ACC50D2ED88169F17BD4B826AE426BD41
:100B80003582B6BE67BDD03FE60AC10C2309C183DA
:100B90002404D6862A01401F891D58495849ED0E64
:100BA000B6BE67BDD03FE60CC11D2309C1D62404E3
:100BB000D6852B01401F891D584958495849ED8851
:100BC000109684841F4CA74E399648262DBDD078A8
:100BD000DE1BECC4DD1BBDD0541143EF07CC50C667
:100BE000ED42CCDDDDED0B8608A70DCC4B29BDD049
:100BF0004BCC0210BDD00C7ABE7039AE47EC02C3AC
:100C00000004108350D2230BCC50C20D5926046A25
:100C1000492711ED026A4E2603BD4B8286038E4B97
:100C2000FB7ED066B6BE66444CBDD03FA749AE47FA
:100C30006A49261C9642811124EA96139A1B27E4DE
:100C4000B6BE71811424DDBD4CAC6A4A272120D484
:100C5000EC02C30004108350E22303CC50C2ED0227
:100C60006A4E2603BD4B8286038E4C2E7ED066CC08
:100C70000000ED0ECC02000D842A0140ED8810AE7C
:100C800047EC02830004108350C2240DA60C811A85
:100C9000231181DA240DCC50E2ED0286038E4C7FC5
:100CA0007ED066BDD0757ABE707ED06334763184D6
:100CB000BDD0544D833384BDD07B7CBE71CC500EEF
:100CC000ED02ED8814EF06AF47CC4DF2ED08CC4BAA
:100CD00031BDD04BEC24C11827015AC30206ED04E4
:100CE000A70AE70CBD4E11B6BE64A74DBDD018359E
:100CF000F6202843292057494C4C49414D53204563
:100D00004C454354524F4E49435320494E432E20A5
:100D1000B6BE713402274ABDD0544D8B3384BDD04A
:100D20007BCC5026ED02ED8814EF06AF47CC4DF298
:100D3000ED08BD388EBD26C3D12B230CD12C240841
:100D4000912D2304912E23EDED04A70AE70CBD4E4F
:100D5000119684841FBBBE64A74DBD388B6AE42600
:100D6000B63582AE47BDD015EC0410AE02AB24EB15
:100D700025A70AE70C312610AF02BDD018108C5001
:100D8000262408860C8E4D637ED0669659857F2773
:100D900008860F8E4D8B7ED066AE476A4D2603BD0A
:100DA0004E46A64B5F4756E30A3406E64CEB0CBDB5
:100DB000000627043262202FE70C3506ED0AEC020C
:100DC0006D4B2A0E830004108350262411CC503220
:100DD000200CC30004108350322303CC5026ED02B4
:100DE000BDD08D6A4E2603BD4E1196EF8E4D997E75
:100DF000D0669648261A7ABE71BD5B4FBDD07EAED6
:100E000006BDD05DCC0120BDD00CCC4B0CBDD04B71
:100E100039968481602305BD26C32002DC5EDD2B6C
:100E2000E005240150C11024035F2009DC2BE105FB
:100E3000C601240150A1048601240140ED4B968493
:100E4000841F4CA74E3934503184B6BE64A74D96EA
:100E50004281111024013B96F18114102201330CC0
:100E6000F1BDD06C4F944FEE4FD510270124EC24E8
:100E7000C30100A70AE70CED04C680D1842355D630
:100E800086C41FCBF0965E811124015FDB5E4FE0CC
:100E900004820034022A0150B6BE653D1F89A6E0D7
:100EA0002A0153584958495849ED0ED686C41FCBDC
:100EB000F0DB5F4FE005820034022A0150B6BE65C8
:100EC0003D1F89A6E02A0153584958495849ED88E1
:100ED000107E4F82BDD0394425294FD684C41FCB04
:100EE000F0EB05DB5F8900445696868407270A9657
:100EF0005E814B250A868F2033965E814B23F686D2
:100F00000720294FD684C40FCBF8EB04DB5E8900A1
:100F1000445696868407270A965F8181250A86EAC9
:100F20002008965F818123F686181E89972B4FE053
:100F3000058200ED8810D62B4FE0048200ED0EF6FE
:100F4000BE6586403D1F894F584958493406435372
:100F500034065849340643533406EC0E10A3642F6C
:100F60001F10A3662C1AEC881010A3622F1210A376
:100F7000E42C0D5849ED8810EC0E5849ED0E20DC9C
:100F800032689F179685841F8B30A74ECC4B11BDBE
:100F9000D04B35D0AE47EC0AE30E81072523818B79
:100FA000221FEC0CE388108118251C81E322186AAB
:100FB0004E270886028E4F947ED066BDD0757ED0B7
:100FC00063630E630F2006638810638811CC4B1691
:100FD000BDD04B20DE964826140AF1BD5B43BDD040
:100FE00078CC0025BDD00CCC4B1E7ED04B390407ED
:100FF0004FF2000A00000ACCCA000C0B0CA0ACBBDC
:00000001FF
