:10000000001F11111111111F00000000000000005D
:10001000001F0101010101010000000000000000BB
:10002000000404040404041F000000000000000099
:10003000001010101010101F000000000000000041
:10004000000204081E040810000000000000000068
:10005000001F111B151B111F0000000000000000F5
:10006000000010080503010000000000000000006F
:10007000000E11111F0A0A1B000000000000000002
:100080000004020F12141010000000000000000015
:10009000000004081F080400000000000000000029
:1000A000001F00001F00001F0000000000000000F3
:1000B00000000404150E0400000000000000000011
:1000C0000004150E04150E040000000000000000DE
:1000D000000004021F0204000000000000000000F5
:1000E000000E111B151B110E000000000000000087
:1000F000000E11111511110E00000000000000008B
:10010000001F11111F11111F00000000000000004E
:10011000000E15151D11110E00000000000000005A
:10012000000E11111D15150E00000000000000004A
:10013000000E11111715150E000000000000000040
:10014000000E15151711110E000000000000000030
:10015000000014081503010000000000000000006A
:10016000000E0A0A0A0A0A1B000000000000000034
:10017000001010101F101010000000000000000000
:10018000001F110A040A111F0000000000000000F7
:100190000004040E0E04040400000000000000002F
:1001A000000E110102040004000000000000000025
:1001B000000E11111F11110E0000000000000000C0
:1001C000001F15151711111F00000000000000008E
:1001D000001F11111715151F00000000000000007E
:1001E000001F11111D15151F000000000000000068
:1001F000001F15151D11111F000000000000000058
:1002000000000000000000000000000000000000EE
:1002100000040404040400040000000000000000C6
:10022000000A0A0A000000000000000000000000B0
:10023000000A0A1F0A1F0A0A00000000000000004E
:1002400000041E050E140F04000000000000000052
:100250000003130804021918000000000000000049
:10026000000205050215091600000000000000004C
:10027000000606020100000000000000000000006F
:100280000008040202020408000000000000000050
:10029000000204080808040200000000000000003A
:1002A0000004150E1F0E15040000000000000000E1
:1002B000000004041F04040000000000000000000F
:1002C000000000000606020100000000000000001F
:1002D000000000001F0000000000000000000000FF
:1002E0000000000000000606000000000000000002
:1002F00000001008040201000000000000000000DF
:10030000000E11191513110E00000000000000006E
:10031000000406040404040E0000000000000000B5
:10032000000E11100E01011F00000000000000006F
:10033000000E11100C10110E000000000000000053
:1003400000080C0A091F0808000000000000000057
:10035000001F010F1010110E00000000000000002F
:10036000000C02010F11110E00000000000000003F
:10037000001F10080402010100000000000000003E
:10038000000E11110E11110E0000000000000000FF
:10039000000E11111E1008060000000000000000F1
:1003A0000000060600060600000000000000000035
:1003B0000006060006060201000000000000000022
:1003C0000008040201020408000000000000000010
:1003D0000000001F001F00000000000000000000DF
:1003E00000020408100804020000000000000000E1
:1003F000000E1110080400040000000000000000BE
:10040000000E11101615150E00000000000000006F
:1004100000040A11111F111100000000000000006B
:10042000000F12120E12120F000000000000000058
:10043000000E11010101110E00000000000000007B
:10044000000F12121212120F000000000000000034
:10045000001F01010701011F000000000000000053
:10046000001F010107010101000000000000000061
:10047000001E01011911111E000000000000000003
:10048000001111111F1111110000000000000000E7
:10049000000E04040404040E00000000000000002C
:1004A000001010101010110E0000000000000000DD
:1004B00000110905030509110000000000000000FB
:1004C000000101010101011F000000000000000007
:1004D00000111B1515111111000000000000000093
:1004E0000011131519111111000000000000000087
:1004F000000E11111111110E00000000000000008B
:10050000000F11110F0101010000000000000000A8
:10051000000E111111150916000000000000000066
:10052000000F11110F05091100000000000000006C
:10053000000E11010E10110E00000000000000005E
:10054000001F040404040404000000000000000074
:10055000001111111111110E000000000000000027
:10056000001111110A0A040400000000000000003C
:100570000011111111151B110000000000000000F6
:100580000011110A040A111100000000000000000F
:100590000011110A0404040400000000000000001F
:1005A000001F10080402011F0000000000000000EE
:1005B00000040E1504040404000000000000000004
:1005C0000004040404150E040000000000000000F4
:1005D000000004021F0204000000000000000000F0
:1005E000000004081F0804000000000000000000D4
:1005F000000000000000001F0000000000000000DC
:10060000000C0C04080000000000000000000000C6
:10061000000E101E111E000000000000000000006F
:100620000001010D1311130D000000000000000077
:100630000000000E1101110E00000000000000007B
:10064000001010161911191600000000000000001B
:100650000000000E111F010E00000000000000004D
:10066000000814040E040404000000000000000050
:10067000001619191610110E0000000000000000ED
:100680000001010D13111111000000000000000015
:10069000000400060404040E000000000000000036
:1006A000001000101010110E0000000000000000EB
:1006B0000001010905030509000000000000000019
:1006C000000604040404040E000000000000000002
:1006D0000000000B151515150000000000000000BB
:1006E0000000000D131111110000000000000000B7
:1006F0000000000E1111110E0000000000000000AB
:10070000000D1311130D0101000000000000000096
:10071000001619111916101000000000000000004A
:100720000000000D130101010000000000000000A6
:100730000000001E010E100F00000000000000006D
:100740000004041F0404140800000000000000005E
:100750000000001111111916000000000000000037
:100760000000001111110A04000000000000000048
:10077000000000111115150A000000000000000023
:10078000000000110A040A1100000000000000002F
:10079000001111111E10110E0000000000000000D9
:1007A0000000001F0804021F0000000000000000FD
:1007B0000008040402040408000000000000000017
:1007C0000004040400040404000000000000000011
:1007D00000020404080404020000000000000000FD
:1007E00000021508000000000000000000000000EA
:1007F000000A150A150A150A000000000000000092
:00000003FD
:00000001FF
