:10000000BDE39F20A7D69227A30F920C5DC639F7B8
:10001000C3FC8104221BCEC010DC309E32109E3403
:100020003636DC2A9E2C109E2E3636DC269E28364E
:1000300016BDD568BDE263BDE07E8602B7D000DCA8
:10004000A2BDE213DCA2BDE39FBDE453BDE3767E17
:10005000DFAC8EAF9DC610D7AE5FBDD711819C249B
:10006000F9A784BDD71181A822F9812A23F5A70118
:10007000E702CB11C47730048CAFDD26DD3996BAA8
:10008000852026F98EAF9DDC20C480DD6FDC22C484
:1000900080936F5849976FC6F0962185402601538B
:1000A000D7714FA794A79804A79808A7980CA7986A
:1000B00010A79814A79818A7981CA79820A7982469
:1000C000A79828A7982CA79830A79834A79838A75E
:1000D000983CD6AEA6849B6F819C250A81C02304E0
:1000E000869B20028600A784A6029471A798003000
:1000F000045A26E0D6DFC43C8EAF9D3AA6028B118F
:100100008477A70296DF8501263E81982524CEA11B
:100110000233C8B6EEC41183624527140DBA2B1002
:1001200081A0250C81A12408D6E11F01D6E0E78437
:1001300080846F9800A78496BA8502270B96E18485
:100140003FC6033DCB2AE701398EA1629F9FBDD7F1
:1001500011A78820A7808CA18326F3399E9FDEBF3C
:1001600033C9FF01EC84EDC4A605E609ED42A60CF7
:10017000A744967B85022722A603E606EDC9FF0168
:10018000A60AA7C9FF03A604E607EDC9FE01A60B50
:10019000A7C9FE03A608A7C9FD0239DE9F9EBF308E
:1001A0008908013726ED8410AF023726A704967B15
:1001B00085022718E789010110AF8901023726104F
:1001C000AF890201A7890203E789030239DEBF5F15
:1001D0008E0000318433C908063634AFC90101E707
:1001E000C90103AFC90201E7C90203E7C903023924
:1001F000DEBF5F8E0000318433C9FF063634AFC9DD
:10020000FF01E7C9FF03AFC9FE01E7C9FE03E7C964
:10021000FD0239977796BA85102628967791C023E4
:1002200022D1C0221E96BD2B08BDE25EBDE1F020AA
:1002300006BDE25EBDE1CDDCBBDDBD2B07BDE24A04
:10024000BDE15C39BDE2587EE19B108EF9C196C4D8
:1002500048DCC1DDBF7ED28E108EF9CB20F0DCBF32
:100260007ED2DF96BA85401026010A0F6FDCC743A5
:1002700053C300012A02036F58495849D3C8DDC847
:10028000966F99C797C7DCC7967B850227120F6FB9
:10029000DCBD2A02036FD3C8DDC8966F99C797C724
:1002A000DCC7475647564F57469794D79396BD2B72
:1002B0000786205D2B07200986705D2B040F940FA5
:1002C00093D6949B93979393C3272625121083016B
:1002D00000231ECC0040DD95CC0100D3C3201810B4
:1002E00083FF002E0CCCFFC0DD95CCFF00D3C320D4
:1002F000064F5FDD95DC93DDC397C1DC20DD22DC9A
:10030000C7108301002D03CC01001083FF002E03D2
:10031000CCFF00DDC7D3209395DD20DCC3445644D9
:1003200056C4E0D320DDCCD6C5967D442509967B06
:100330002B20CC00002036C12B233ADCCA2A0EC366
:10034000FFF81083FE002C25CCFE002020CCFF00FF
:10035000201BC1EE241FDCCA2F0EC300081083022D
:1003600000230ACC02002005CC01002000DDCAD306
:10037000C5DDC597C23996BA852026228EA0652094
:1003800019EC0AE30EED0AEC0CE38810812A240232
:1003900086F081F02302862AED0CAE8426E3393400
:1003A0000696BA8520264A8EA0652041EC042712C5
:1003B000E1E42239E161233510AE02ADB8084F5FA8
:1003C000ED04E60CE1E42225E1612321EC0A93200F
:1003D00010832580241710AE0258495849ABA481D8
:1003E0009C220AA0A458E60CED04ADB806AE842603
:1003F000BB3586346696998114244FEC0A932010FD
:10040000832580244558495849E60CC12A233B9E40
:10041000672737ED04ED0A1E89ED0CEF064F5FEDFF
:100420000EED8810EE663726ED881210AF02370603
:10043000EF66ED088614A78815A78816EC84DD679B
:10044000DC6DED840C999F6D35E6EE663346EF6604
:100450004F35E696BA8520263EDC20C4E0DD9DDCE3
:1004600022C4E0939D58495849DD9D8EA06D2023FC
:1004700010AE04EC8810E30C812A234AED0CEC0E3C
:10048000D39DE30A8198243EED0AE60CED04EE04C8
:100490006E9812AE8426D939DEA6E60B2A023346C0
:1004A000CC0000EDA4A722EDA90100A7A90102102C
:1004B000AE04ECC4EDA4EC42A722E7A90100EC4491
:1004C000EDA9010120CD4F5FA78816EDA4A722ED6D
:1004D000A90100A7A9010220BADEA8E60B58CC00AA
:1004E00000EDA4A722EDA90100A7A9010210AE0406
:1004F0002515ECC4840FEDA4EC42840FA722C4F0B0
:10050000E7A901017EE493ECC4C40FE72184F0A7BE
:10051000A90102EC4284F0EDA901007EE493CC0035
:1005200025BDD3600A99BDD0F2BDF3FEEC0A445656
:100530004456D320ED0AA60C8002A70CCCF951ED4D
:1005400002BDFC63CCD4E47ED54D5E8EA1A29FA8F3
:10055000C60ABDD7112B02C609442504CBA0200230
:10056000CB90E7808CA1C226E7398EA06D201BA618
:10057000881627056A88152611EE84EFA4DE67EF3A
:10058000849F67BDF3FE0A9930A43184AE8426DFD0
:100590003996B5810424110CB5CCD51BBDD54D9E23
:1005A000C196BB2A1C7EE6307ED00A34468602976E
:1005B00036B7D0003506121212CEF96FBDE6BA3545
:1005C000C030890704AF47AF49AF4B96BA85402684
:1005D000508604AE47C6118C98002445E7843089C4
:1005E00001004A26F7C699E784AF47109EA4108CF5
:1005F000A15F2504108EA142AE498603E6A0E784E0
:10060000308901004A26F5109FA4AF496FD80B6CC2
:100610004BEC4780068D94260886018EE5CB7ED074
:1006200001AE4B4FA78430890100AC4723F6206A06
:100630003004AF47AF49AF4B96BA8540264F86048A
:10064000AE47C6118C05002344E7843089FF004A79
:1006500026F7C699E784AF47109EA4108CA15F25AA
:1006600004108EA142AE498603E6A0E7843089FFDC
:10067000004A26F5109FA4AF496FD80B6A4BEC4790
:10068000BDE5AB260886018EE6387ED001AE4B4F25
:10069000A7843089FF00AC4724F60AB57ED00A8EC5
:1006A000A1429FA4BDD7115F442402CB0144240280
:1006B000CB10E7808CA16226EB398EA065DDD6E3F6
:1006C000C4DDD82017EC04271391D8240FD1D924E6
:1006D0000BE3980291D62304D1D72205AE8426E5F8
:1006E00039DFDC10AE02A3A4DD734F5FDDD0DDD2B5
:1006F000DC73D0D7220550D7D12002D7D390D62291
:10070000054097D0200297D2DC73E3A4D0D9220110
:100710005F90D822014FDDDAECA493D093DADDCEDE
:10072000A64197D5D6D23DEE4233CBA62197D41021
:10073000AE22D6D03D31AB96D131A696D333C6D6B4
:10074000CF5AA6C5272AA6A5272631A51F20EE0227
:10075000A34210AE04E0418200250631A901002029
:10076000F4EB41890031A5109FF8AD980886013956
:100770005A2ACFDCD431A633C50ACE26C2DEDC7EAF
:10078000E6DC0FB68EE79996B6E68627F50CB6D767
:100790002786028EE7847ED00138393A3B3C3D3EC5
:1007A0003F372F271F1747478787C7C7C6C5CCCBFB
:1007B000CADAE8F8F9FAFBFDFFBF3F3E3C008EA025
:1007C0005F9F63965D27FC0F5DD6BAC57D27040F3A
:1007D0005E2047489B5E80042A014F975E81022578
:1007E00039C603D7AE810223318602975E108EA0F0
:1007F00065AEA42725A688142704318420F3EE844F
:10080000EFA4DCDF843F8B60E30AED0ABDF3FECC8E
:100810000000ED04DE6B9F6BEF8486029736B7D045
:10082000008D3EBDFC66BDD7119E82260C9E86279C
:1008300017DC880F860F872006DC840F820F83D495
:10084000BA26E6BDD05520E1CEA05F20096A442635
:1008500005DF636ED802EEC426F310CEBFFF7EE73D
:10086000BE96BA8510262DDCBFCEF9C10DBD2A0378
:10087000CEF9CB34460CDEBDE6BA354626088EA04E
:100880006DBDE6BD270E8EDA468600BDD05596BA00
:100890008A0897BA0FDE3996AF26230CAFDCBD531A
:1008A00043C30001DDBB86028EE8AE7ED001967B9D
:1008B000854026F286058EE8BC7ED0010FAF7ED043
:1008C0000A969A26579E8DA60927510C9A6A09BD49
:1008D000D680CCD4D2BDD54D9E652714EC04270C10
:1008E000A6881481022405AD980820ECAE8420EA85
:1008F000DE638604A747032686028EE9007ED001C8
:100900006A4726F2860A8EE90C7ED001967B850422
:1009100026F2860A8EE91A7ED0010F9A7ED00A96B8
:10092000BA85FD10260095867797BABDF5F1860F3A
:100930008EE9367ED0019E6D2705BDD0F220F70FDF
:1009400099DCDFDD20DD22542408CC20008E03005A
:1009500020068EFD00CC7000DDC39FBBD6E054CBDB
:100960002AD7C5DDC14F5F97C9DDC7DDCABDF4FA1F
:10097000C650BDDA3DBDD095F9C1EDBC0000CC003C
:1009800000ED0EED8810DCC5ED0CDCC3445644567A
:10099000D320ED0A96BB2A05CEF9CBEF02DE63AF7A
:1009A00047BDFC6086288EE9AC7ED001AE47BDF322
:1009B000FBBDDA3C96E181C01022F08A7ED00A9E0F
:1009C0009F30018CA18223038EA1629F9F9EA8303D
:1009D000018CA1BA23038EA1A29FA886048EE9BF31
:1009E0007ED001BDEA3386028EE9EE7ED001BDEAFB
:1009F0000ABDE56A86028EE9FC7ED001BDF50BBD1D
:100A0000C00386048EE9E37ED001DC20830C80DD08
:100A1000738EA0652016EC0A937310833E80250C1C
:100A2000EE84EFA4DE6BEF849F6B30A43184AE8440
:100A300026E439DC20830C80DD738EA06B2039EC3A
:100A40008810584958495849E30C812A240286F0F5
:100A500081F02302862AED0CEC0E5849584958497A
:100A6000E30AED0A937310833E80240CEE84EFA416
:100A7000DE65EF849F6530A43184AE8426C13940A1
:100A80008EEAB48600BDD0553384BDD095F9A3EB72
:100A90002B3333AF47EF06DCDF841FD320ED0A543E
:100AA000CB2AE70C4F5FED8810ED0E8608A7498D25
:100AB000447EFC60AE47EC021083F8EC27286A49BC
:100AC0002613B6A110BDDD9EA749BDEEBA2706CC00
:100AD000D52FBDD54DEE02334A1183F9B72305CE8C
:100AE000F9A38D0AEF0286068EEAB47ED00196DF66
:100AF000B1A1112335CC4001DD73EC0A93CC2B025C
:100B00000073C30280108305002307D6731DD3C76B
:100B1000ED0EA60C90C02B0200748B0A8114230AE0
:100B20005F9674D3CA4756ED8810397AA119BDF47F
:100B3000160120D4FD399773BDD095F8F7EB74CC2E
:100B4000CCBDD711DCE0843F8B10ED0A54CB2AE7F3
:100B50000CD6DFC43FCBE01DED0ED6E1C47FC04014
:100B60001D2B04CA202002C4DFED8810BDFC600AE2
:100B70007326C539BDF41D0210D4F38606BDDD9E73
:100B80003184BDEB9E7AA11439BDD711D6DF1D5833
:100B900049ED8810D6E1C43FCBE01DED0E39347627
:100BA0009773B6A1164C8114223DB7A1168EEC178F
:100BB0008600BDD0553384BDD095F97BEBE9242464
:100BC000EC2AED0AEC2CED0CAF47EF068DBBDCE018
:100BD000F4A10EE749841FA744B6A10DBDDD9EA771
:100BE0004B9F650A7326BB35F67AA116BDF3FB341D
:100BF00010BDD0133510EC0A830040ED0AEC0C80D8
:100C000002A70CCEF8E2EF02BDFC63CC0115BDD308
:100C100060CCD5167ED54DAE47F6A10C109ECC10FB
:100C2000AC0A2401501DED0E2054E649AE4796C093
:100C3000A10C2201501DE38810108302002D03CC6B
:100C400002001083FE002E03CCFE00ED88104353FB
:100C5000584958491F891DE38810ED8810D6DFC414
:100C60001FCBF01DE38810ED8810DCCCA30AC31263
:100C7000C01083258022A06A4B2603BDEC86860324
:100C80008EEC2A7ED0013410DCCCA30AA80E2B2FC8
:100C90003184BDE3F3E4D9F95BE51E2722EC2E583D
:100CA0004958495849ED0ECCD534BDD54D5F96C055
:100CB000A00C47564756475647564756ED8810B63C
:100CC000A10DBDDD9EA74B3590AE4730028CA13AF9
:100CD00025038EA11AAF47AE842776EC042772EC69
:100CE000081083ED70266AEC021083F90B222F9610
:100CF000DF81082350BDED598B0481E8230286E88B
:100D0000C601A10C2707220150EB0CE70CEE0233C1
:100D10004A1183F90B2303CEF901C6E0202C96DF9C
:100D2000810823F38D338B0F81E8230286E8C60107
:100D3000A10C2707220150EB0CE70CEE02334A11FD
:100D400083F91F2303CEF915C620EF021DE30AED38
:100D50000A86028EECC97ED0013414EC0A44564453
:100D60005644564456445644568EB300A68B35948A
:100D700096DE27034F35868D4BBDF3FBCCF8D8EDBF
:100D800002EC0A830040ED0ABDFC63CCD4E47ED5BE
:100D90004DEE0627DB96DE2726EC421083F24C2729
:100DA00016CCD4DABDD54D34108EEE738600BDD08E
:100DB0005531843510AF27CCF24CED424F35868D3E
:100DC000B67ED01331843452CEA11A864010ACC105
:100DD00027064A26F8BDD03A4F5FED5E0AFA26088C
:100DE0008EEDEA8600BDD05535D296BA8A0297BA02
:100DF0006F47BDF4FFBDC0098EB125CE000086400F
:100E0000EF914A26FB9E67CCF9F1ED02C602D7733B
:100E1000BDD711843FD320ED0ABDED59A70C800A40
:100E2000BDFC630A7326E996DF841F8EE799A686C8
:100E30009726CCD4E4BDD54D8EEE448602C608D7A5
:100E40005E7ED0010F26A6474444444CBDDD9E8EF5
:100E5000EE5420E96C47A647811026A9CCD4C7BD23
:100E6000D54D7ED00ABDD095F9DDEDBC0000CC019A
:100E700025200CBDD095F9E7EDBC0000CC0150BD9C
:100E8000D36010AE47DCC7ED0ECC0000ED881086B5
:100E900011A78814EC2AED0AEC2C2B05C3180020AE
:100EA00003832000ED0C9F65AF4786328EEEB27E45
:100EB000D001AE47BDF3FB7ED00A3410BDE3F3E4AE
:100EC000D9F95BE51E2735D6DFC41FCBF0DBBFE0C9
:100ED000041D58495849ED0ED6DFC178230ADCC7F6
:100EE00058495849E30EED0ED6E1C41FCBF0DBC0E4
:100EF000E0051D58495849ED8810860135906A4D26
:100F00002612B6A105BDDD9EA74D8DAE2706CCD518
:100F100025BDD54D39340297738EF15E8600BDD064
:100F2000553384BDD095F8CEEF6DCC33BDD711DCF1
:100F300020832580DD75DCE0937510834B0024034E
:100F4000C38000D375ED0A96DF448B2AA70C4F5F50
:100F5000ED8810ED0EB6A10BBDDD9EA747BDFC6070
:100F6000EF06AF477CA1150A7326AE35827AA1152C
:100F7000BDF4160115D4F839341096FA271C9E9B3F
:100F800030028CA15A25038EA11AEC8426069C9B64
:100F900026EE35909F9BED49AF4B35903402977309
:100FA0000DFA26037EEF198EEFF68600BDD055337D
:100FB00084BDD095F985F20B4433BDD711DCE0ED4B
:100FC0000A862CA70CFCA103ED8810B6A105BDDD97
:100FD0009EA74DB6A102BDDD9E1F894FC501270208
:100FE0005343ED0EEF06BDFC60AF478D8B7CA11225
:100FF0000A7326AC3582AE4710AE49ECD80B2716E3
:10100000A62981702610A60A84FC9773A62A84FC60
:1010100091732751200FA6881484FEA78814BDEF72
:101020007810270119BDED598032A00C220F81ECF8
:101030002D044F5F200AFCA10343532003FCA103AE
:10104000ED8810EC021083F8EC2712BDEEFEEE02E4
:10105000334A1183F9992303CEF985EF0286068E70
:10106000EFF67ED0014F5F6C8814ED0EED8810CC4A
:10107000F985ED02AE4710AE49ECD80B2798A629AA
:1010800081702692EC2AC4E0DD75EC0AC4E010936E
:1010900075270D2D04C6E02002C6201DE30AED0AC7
:1010A000A62C800CA10C2716FCA10324024353E3B9
:1010B0000CED0CBDEEFE86018EF0747ED001EC0AC4
:1010C000C30040A32A1083008022E8CCF1E0ED08A1
:1010D000FCA1035343ED8810EDA810CCD50CBDD571
:1010E0004DCCED91ED28DE63AE47A60C8132230B8B
:1010F000BDEEFE86048EF0E67ED001CCD511BDD5C6
:101100004DAE4710AE49ECD80B260BBDF3FB7AA1D0
:10111000120CFB7ED00A4F5FED8810EDA810A62CB4
:10112000A10C230F6A2C8612BDD53986018EF101E0
:101130007ED00130A4EC248B01DDF8BDED777AA1DF
:10114000127CA115AE476F8814CCF8CEED02CCCC42
:1011500033ED8812CCEF6DED08B6A10BA749AE4771
:10116000F6A10A109ECC10AC0A2C01501DED0EDC2D
:10117000CCA30AC3017C10830700232196C0A00CD6
:10118000230B8108220BFCA1084353200B81F82E6E
:10119000044F5F2003FCA108ED8810201296C0A127
:1011A0000CFCA10824024353ED8810EC042729F617
:1011B000A10796DF2B0150EB0CC12A2402C6F0E7F1
:1011C0000C6A492613B6A10BBDDD9EA749BDEEBA38
:1011D0002706CCD52ABDD54D86038EF15E7ED00183
:1011E000EE06ECD80B2724CC0000CC000034108E87
:1011F000F2168600BDD055EE49EF07CCD4E9BDD537
:101200004DCC0000EDC810AF4635107AA112BDF4E8
:10121000160115D50739AE47CC0008E388101083B6
:1012200003002403ED8810BDED59A10C2216EC88B3
:1012300010108300E02339EC04C30107DDF8BDED95
:10124000777ED00A86048EF2167ED001AE47CC009F
:1012500000ED881096C58B0AA70CDCCCC30080ED8E
:101260000ABDED59A10C250F86018EF24C7ED001EE
:1012700034108EEE65200534108EEE738600BDD0DE
:101280005531843510AF27CC0000ED06ED8810CC29
:10129000ED70ED08CCD4DFBDD54D7ED00A9773F646
:1012A000A10603AA2B0150D7748EF2F78600BDD099
:1012B0003E33849673A74F4F5FED47ED49ED4BEDFD
:1012C0004DBDD095F929F3BC8888D6741DED0E4F1D
:1012D0005FED8810967344569B73D3CC8B80ED0AD8
:1012E0008650A70CA7C810EF069F659673488B051C
:1012F000AFC60A7326CB3996DF84068B07AEC610BD
:101300002700B1D6DF860AC43FCBE02B014010AEE8
:101310000231A6108CF9292404108EF929108CF9B9
:10132000472304108EF94710AF021DE38810ED88A3
:10133000105849584958491F89501DE38810ED88B5
:1013400010A605263B96DF8140221684038BFEAB58
:10135000C810814024028640816825028668A7C89B
:1013600010A6C810A00C8B108120234880102B05DC
:10137000CCFFF02003CC0010E38810ED881020345F
:1013800090C02B1281202505CCFFF020198110225E
:101390001BCC0010201081E02E05CC00102007810E
:1013A000F02D09CCFFF0E38810ED881096E184075A
:1013B00026028D2886018EF2F77ED001BDF41D0134
:1013C00025D5027AA113EE063147ACA126FC4F5F6A
:1013D000ED3E6A4F260530C4BDD015399699810A75
:1013E0002418BDE3F3E498F95BE51E270DD6E01D54
:1013F000584996DF841F4CA7881539BDD0C734766D
:10140000BDF503EC0410AE02ADB80835F63410BDDE
:10141000D0133510200A3410BDD0133510BDD0C7FD
:101420003446EE643706BDD3608D093706EF64BDE0
:10143000D54D35C634768DC6BDFC6335F68EF45B6E
:10144000AF4786068EF44A7ED001AE47EC81DD338D
:10145000A68097358CF46425E720E281812F812FC7
:10146000072F810786FF97300F3286038EF4727E36
:10147000D00196DF841F8EE799A686973097328E2B
:10148000CCB09CA626038ECCBC9FA686068EF464A8
:101490007ED001968A26248E0F1C968B4A27038EB7
:1014A000711CCC1808BDF5C786088EF4B07ED0013B
:1014B000BDD3D9860C8EF4937ED0017ED00ADE6334
:1014C000AF4DD636E74C8EF4CC7ED001A64C8D3D88
:1014D0006ED80D327D34429636A765EE66A642EE92
:1014E000C4EF638D283542ADF43442A6658D1EEEFF
:1014F000663343EF6635423263398D037EC0008622
:1015000007200A860220068603200286019736B746
:10151000D00039347F8DECBDC00235FF8DE97EC02F
:101520000F3934761F019636340286029736B7D0CB
:1015300000ECA410AE223406C5012617C002EEA5A9
:10154000EF85C0022AF8E6613089010031A54A26FC
:10155000EB201D5AA6A5A785C0022B08EEA5EF8596
:10156000C0022AF8E6613089010031A56AE426E369
:10157000326235029736B7D00035F634561F0196E1
:1015800036340286029736B7D000ECA4CE00003481
:1015900004C5012613C002EF85C0022AFAE6E43032
:1015A0008901004A26EF20165A6F85C0022B06EFEC
:1015B00085C0022AFAE6E4308901004A26EA3506A7
:1015C000D736F7D00035D6345696363402A6612089
:1015D000BB3476CE9C008E00001F121F10363636AC
:1015E0003636363636363636101183000026EE355E
:1015F000F6347ECE9C008E00001F121F101F8BC67B
:1016000008363A363A363A363A5A26F5363A363ABD
:10161000363A363033C8D61183000026E235FE7FD5
:10162000D0008ECC006F016F036F056F0786C0A7D7
:101630008486FFA7026F046F068604A703A705A789
:10164000078A10A7018EC00086C0A780C6B53D8C52
:10165000C01026F61A801CEF108E00024F1F8B1C44
:10166000BF5F1F038E000053C50926055346562051
:101670000B53C5092604465620024456ED811E1020
:101680005D2617C638F7C3FC1FA9C510270B7FD0EE
:1016900000F6CC0053C50327515F1E108CC00026F6
:1016A000C61F308E000053C5092605534656200B31
:1016B00053C509260446562002445610A381271715
:1016C0001E021FA88510270A86039736B7D0007E12
:1016D000C02A4F1E201A401E105D26421FA9C510A9
:1016E0002712F6CC0053C503262E86039736B7D0B3
:1016F000007EC02D1FA9C540271E1CBF1FB91F8B10
:10170000800324FC4C2604CA0220094C2604CA018A
:101710002002CA041FB81F9BC638F7C3FC5F1E1007
:101720008CC0001026FF7F313F1026FF351FA95DBA
:101730002B0BC603F7D000BDF8007EC030C51010DB
:1017400026FF1F869E1FB95D27044C5425FC1F8B66
:101750008B015F1F04BDF800CEF86E7FD000863885
:10176000B7C3FCA6C4E6C4272AC40FF7D000847010
:10177000448BC05F1F01108E08001F30C06C544F97
:10178000E980313F26FAC18027091FA88510273E2E
:101790007EF50733411183F88626C01FA8851026E1
:1017A000EF1FB8819E2608BDF507BDC0002026C6E4
:1017B000408D05BDC003201D8ECC00E784E7027F6D
:1017C000D0008638B7C3FC301F26F77EF507C680E9
:1017D0008DE6BDC006BDC0097ED7383403963634C9
:1017E000020F367FD000E78435029736B7D0003538
:1017F000833403963634020F367FD000E68420E827
:1018000034060F520F49860397369748CCFFFFDD09
:10181000593586A601840F3402A68148484848AB52
:10182000E0393404D63634040F367FD0008DE435E9
:1018300004D736F7D00035848DE834028DE41F8953
:1018400035823402A70144444444A78135823404DC
:10185000D63634040F367FD0008DE73504D736F7FF
:10186000D00035848DE834021F988DE23582200047
:1018700040506070300000000700030002000100CB
:10188000130012001100E59100E800000000E8C11B
:1018900000F8E91F00F8D84E0000D8390000E8979A
:1018A00000E80000000000000000D44C0000D475E7
:1018B0000200D43D0000D46E0200D47C020000007F
:1018C00007282F81A415C7FF0000000000000508AD
:1018D000F9FBFA23D193D11F0408FA4BFA4BD13903
:1018E000D16B0408FA6BFA6BD139D16B0101F8F6B0
:1018F000F8F6D8DBD8DB000408FA8BFAABD139D183
:101900006B0208FACBFADBD0F9D10B0208FAEBFA3A
:10191000FBD0F9D10B0208FB0BFB1BD0F9D10B025A
:1019200008FB2BFB3BD0F9D10B0408FB4BFB6BD125
:1019300039D16B0408FB8BFBABD139D16B0408FBAD
:10194000CBFBEBD139D16B0408FC0BFC2BD139D18B
:101950006B0408CC90CC90D139D16B0203CCB0CCC5
:10196000B6D1F1D20D0203CCBCCCC2D1F1D20D085C
:1019700001F973FFFFFFFFFFFFFFFF0304CCC8CC9B
:10198000D4D1ADD1D70508CCE0CD08D193D11F0576
:1019900008CD30CD58D193D11F0508CD80CDA8D129
:1019A00093D11F0604CDD0CDE8D21FD2600604CE5D
:1019B00000CE18D21FD2600604CE30CE48D21FD23D
:1019C000600806CE60CE90D28ED2DF0806CEC0CEA2
:1019D000F0D28ED2DF0504CF200303CF340606CF2A
:1019E0003DCF61D33DD3500606CF85CFA9D33DD39C
:1019F000500806CFCDCFCDF522F57B0000030300C4
:101A00000003300C3C0C0838300000C0C0C87878A7
:101A100070707000300303303003000000000000DD
:101A200000003000000000000000300003303003F0
:101A3000033000CCCCCC8787070707000380808366
:101A4000030000000030300000300300000D6C6C1B
:101A50000D000006E6C88382C8EC06606D8C28285D
:101A60008C6D600000E0C6C6E00000000002222489
:101A70000200000222444424422200202244442442
:101A80004222000000202222200000000E00D80088
:101A90000E00000F088CC88C080F00000E80C88054
:101AA0000E0000000000D0000000000000000D004B
:101AB00000000000E0088C08E00000F080C88CC83E
:101AC00080F00000E0008D00E00000334343878792
:101AD0000707070000808080000000030404080856
:101AE0000000003030387878707070334343878757
:101AF00077777700008080800000000304040808E6
:101B00000707073030387878707070030383878751
:101B100007070730404080800000000000080808E8
:101B20000000003334347878707070030383878743
:101B30000707073040408080707070000008080878
:101B400000000033343478787777770808DDDEDEFC
:101B5000DEDD008888DDEEFEEEDD008888D8D8D88E
:101B6000D0D000000000000000000000000D0D0DAE
:101B70000D0D008888DDEEEFEEDD008888DDEDEDEF
:101B8000EDDD0080808080800000000008DDDEDE6A
:101B9000DEDD000088DDEEFEEEDD000088D8D8D85E
:101BA000D8D000000000000000000000000D0D0D66
:101BB0000D0D000088DDEEEFEEDD000088DDEDEDBF
:101BC000EDDD0000808080808000000000DDDEDE32
:101BD000DEDD000000DDEEFEEEDD000000D8D8D82E
:101BE000D8D800000000000000000000000D0D0D1E
:101BF0000D0D000000DDEEEFEEDD000000DDEDED8F
:101C0000EDDD0000008080808080000000DDDEDEF1
:101C1000DEDD000000DDEEFEEEDD880000D0D8D86D
:101C2000D8D888000000000000000000000D0D0D55
:101C30000D0D000000DDEEEFEEDD880000DDEDEDC6
:101C4000EDDD8800000080808080800000000000C2
:101C50000000000000000000000000000000000084
:101C60007EFC697EFCCC7EFD2D3466EC023406FCE5
:101C7000FF9DED029F65EC0A93201083260022173A
:101C8000109EE2270931A840108CA0002604108E77
:101C90009C00109CE226063506ED02202DA6A42B02
:101CA000E42703BDFDD596BA85802606FCFFDDBD81
:101CB000FFDAA688148A02A78814CCAF00EDA435F9
:101CC00006ED2233A840EF24AF2A35E63466EC0A4D
:101CD000932081262255DDE9109EE2270931A84094
:101CE000108CA0002604108E9C00109CE2273CA6BD
:101CF000A42BEA2703BDFDD5109FE2CC0100EDA483
:101D0000EC02ED2233A840EF24DCE958495849E6BB
:101D10000CED2893F8EE22ABC42408EB412404DC3C
:101D2000F82006ECC44454E328ED2635E6108E9CDA
:101D30000096BA8504270CA6A42B56CC0000EDA46F
:101D40007EFDC9ECA4102700802B33C300AAEDA4AC
:101D50008130230ABDFDD5CC0000EDA4206BDC2032
:101D6000C4C03406DC22C4C0A3E158495849340237
:101D7000A626ABE4A726A628ABE0A728204583012A
:101D800000EDA42A0CAE2AEC0A93208B0C85C02708
:101D900018CC0000EDA4EC22AE2AED02A688148433
:101DA000FDA78814BDFDD52020800C58495849E670
:101DB0000CED28C6DA3D48EE22E6C43DE64154E388
:101DC00028ED26BDFDD5BDFDEF31A840108CA0004B
:101DD0001026FF5D393416CC000030A8409FF3AECA
:101DE000249CF32708ED919CF326FAAF2435963412
:101DF00076109FF6A6A4847F97E733A8400FE6AE3F
:101E000022EC02DDF3EC8497F1D7F2C50126058EB2
:101E1000FF2720038EFEF39FEDEC26A32897E454C2
:101E2000D7E509E696E7D6E43DDDE9E6264F93E9F6
:101E3000DDE94D2718DCF3DBF28900DDF30AF11050
:101E40002700F2DCE9DBE78900DDE920E5C1981035
:101E50002200E296E74897E8D6E53DDDEBE6274F1E
:101E600093EBD0E689000FF54D2604C12A24100C0F
:101E7000F50AF20AF2102F00BCDBE8890020E9DD48
:101E8000EB96F284FE8EFF48AE869FEF9EF308F538
:101E900096EAD6F53AD6EC6E9FA0EFEDC310AE8170
:101EA00010AFD4DBE82556EDC310AE8110AFD4DB04
:101EB000E82550EDC310AE8110AFD4DBE8254AED24
:101EC000C310AE8110AFD4DBE82544EDC310AE8162
:101ED00010AFD4DBE8253EEDC310AE8110AFD4DBEC
:101EE000E82538EDC310AE8110AFD4DBE825326EA3
:101EF0009FA0ED2530EDC3E680E7D4202A300C6E9C
:101F00009FA0ED300A6E9FA0ED30086E9FA0ED30CF
:101F1000066E9FA0ED30046E9FA0ED30026E9FA074
:101F2000ED6E9FA0ED30010AF1270A9BE72506819F
:101F3000981023FF5D9EF6EF04EC0681982207D0EF
:101F4000E68E0000AF8B35F6FEEFFEE3FED7FECB4C
:101F5000FEBFFEB3FEA7FE9B0000000000000000D5
:101F60000000000000000000000000000000000071
:101F70000000000000000000000000000000000061
:101F80000000000000000000000000000000000051
:101F900000000000000000000000000000F8ECF865
:101FA0006E7EF8227EF83A7EF8387EF84E7EF8662D
:101FB0007EF8647EF5227EF57B7EF5C77EF5D17EC8
:101FC000F7587EF7937EF6627EF7D57EF4FA7EF4BC
:101FD000D37EF4BE7EF7DB7EF7F17ED54DD4EE2ABC
:101FE00000000000000000000000000000000000F1
:101FF000F61FF61FF61FF61FA08FF61FF61FF61F1F
:00000001FF
