:1000000024242424242424242424242424242424B0
:1000100024242424242424242424242424242424A0
:100020002424242424242424242424242424242490
:100030002424242424242424242424242424242480
:100040002424242424242424242424242424242470
:100050002424242424242424242424242424242460
:100060002424242424242424242424242424242450
:100070002424242424242424242424242424242440
:100080002424242424242424242424242424242430
:100090002424242424242424242424242424242420
:1000A0002424242424242424242424242424242410
:1000B0002424242424242424242424242424242400
:1000C00024242424242424242424242424242424F0
:1000D00024242424242424242424242424242424E0
:1000E00024242424242424242424242424242424D0
:1000F00024242424242424242424242424242424C0
:1001000024242424242424242424242424242424AF
:10011000242424242424242424242424242424249F
:10012000242424242424242424242424242424248F
:10013000242424242424242424242424242424247F
:10014000242424242424242424242424242424246F
:10015000242424242424242424242424242424245F
:10016000242424242424242424242424242424244F
:10017000242424242424242424242424242424243F
:100180000E24302424242424242424242424242439
:10019000242424242424242424242424242424241F
:1001A0001B0032242424242424242424242424242E
:1001B00024242424242424242424242424242424FF
:1001C000180034242424242424242424242424240F
:1001D00024242424242424242424242424242424DF
:1001E0000C003624242424242424242424242424F9
:1001F00024242424242424242424242424242424BF
:100200001C053824242424242424242424242424C1
:10021000242424242424242424242424242424249E
:100220002B003A2424242424242424242424242495
:10023000242424242424242424242424242424247E
:1002400012003C242424242424242424242424248C
:10025000242424242424242424242424242424245E
:1002600011243E2424242424242424242424242447
:10027000242424242424242424242424242424243E
:10028000242424242424242424242424242424242E
:10029000242424242424242424242424242424241E
:1002A000242424242424242424242424242424240E
:1002B0002424242424242424242424242424240022
:1002C00024242424242424242424242424242424EE
:1002D0002424242424242424242424242424240002
:1002E00024242424242424242424242424242424CE
:1002F00024242424242424242424242424242424BE
:1003000024002424242424242424242424242424D1
:100310002424242424242424242424242424241DA4
:100320001D002424242424242424242424242424B8
:10033000242424242424242424242424242424128F
:100340001C00242424242424242424242424242499
:100350002424242424242424242424242424240D74
:10036000290024242424242424242424242424246C
:100370002424242424242424242424242424240E53
:100380000100242424242424242424242424242474
:100390002424242424242424242424242424241B26
:1003A0002400242424242424242424242424242431
:1003B0002424242424242424242424242424240C15
:1003C00024242424242424242424242424242424ED
:1003D000242424242424242440415C5D2424242433
:1003E00024242424242424242424242424242424CD
:1003F000242424242424242442435E5F242424240B
:00000001FF
