:10000000B8CD6C840F27028D0F108ECD3E8617C69B
:10001000048D3824028D01398ECD3E860ABD40FA0A
:100020008CCD6625F88ECD74108ECD3E8606BD40F3
:10003000B1108ECD668D7A8ECD7A108ECD6C8608FD
:100040008D6FBD3F88108ECD7420463416C639F7AB
:10005000CBFF1F21BD40F2C10A2532C124222E4A06
:1000600026F2A661BD40F2C40FC10922204ABD405C
:10007000F23404C40FC10935042212C4F0C199221C
:100080000C4A26EA1CFE8639B7CBFF35961A0120AA
:10009000F53436302E8CCFA4240F860E8D13312EDE
:1000A000300E8639B7CBFF20ECBD3F7CBD3FA73576
:1000B000B63436E680E7A04A26F935B63476CC0069
:1000C000001F011F02CEA000863936343634363484
:1000D000363436343634B7CBFF1183FFEC26EB359C
:1000E000F6A601840F3402A68148484848ABE0399F
:1000F0008DEF34028DEB1F8935823402A701444411
:100100004444A78135828DF234021F988DEC3582EC
:100110003416860120023416C40F58340458EBE01C
:100120008ECCFC3A8DCC34048DC834048DC4340498
:10013000ABE419A7E4A661890019A761A66289004A
:1001400019301A8DB5350435028DBB35023596BD93
:10015000F00F860FBD4A620FD58E117086F1C62250
:10016000108ECD3E109CEA2604C6552007109CEE4A
:100170002602C677BD4A56862BBD4A5030890300F9
:10018000861597DC0ADC271B1E12BD3B31810A2E27
:10019000090DD52607109FD520020FD51E12BD4A86
:1001A0005020E10DD527029ED5860497DC108ECD18
:1001B0006C1E12BD3B311E128AF0850F26028A0F7B
:1001C000BD4A560ADC1E12BD3B311E12BD4A560AFC
:1001D000DC26F28E1380C633CE4A5FDFDFCE4A596B
:1001E000860D97DC860297E2860797E1860E97E7F1
:1001F0008D548E3D80860D97DC861597E28D478E57
:100200006780860D97DC862897E28D3A8E1336102C
:100210008ECFA4C611CE4A56DFDFCE4A5086039752
:10022000DC860197E2860A97E1861597E78D178E9F
:100230005336860397DC860497E28D0A8EF012CC43
:100240004000BDE009399FD93404C603D7E95CD723
:10025000E6E6E4109CEA2705109CEC2602C6551041
:100260009CEE2705109CF02602C67796E285F026C4
:10027000028AF0AD9FA0DF862BADC4860AADC41EF6
:1002800012BD3B311E12ADC40AE926F39FD59ED99B
:100290001E01D6D69BE71E010FDD1E12BD3B311E8F
:1002A000120DDD261A3402860491E626043502205A
:1002B00006350285F026088AF0850F26028A0F97F8
:1002C000DD03DDAD9FA0DF0AE626CF9FD59ED91EB8
:1002D00001D6D6DBE11E0196E28B011997E20ADC1A
:1002E00035041026FF623934129BF21924028699D4
:1002F00097F28ECD00BD40FA35127E5ED83416C618
:1003000003200A3416C60220043416C601BD41106B
:10031000588ECC063ABD40F28D6196F43404ABE4BD
:1003200097F496F3ABE097F38ECC12BD40F28D4B71
:100330003404A1E0240235968ECC0EBD40F28D3BF4
:100340008D233402D7F38ECC10BD40F296F48D2B62
:100350008D134D27040FF30FF4ABE019C604BD4114
:10036000168D84359634045D26034F35841E8986A8
:10037000998B0119E0E424F9EBE03934024FC11004
:1003800025068B0AC01020F63404ABE01F893582A5
:1003900034041F894FC10A25078B1019C00A20F5A4
:1003A0003404ABE0193584108EB0008ECC16BD40FD
:1003B000F28DC8E7A4C614860A302FA7805A26FB00
:1003C0008E43F6AF268E2080AF28C60AE7226F2123
:1003D0008625A723863CA7248677A725ADB80625C2
:1003E00005BD44B820F6C6148ECD3E312FA6A0BD63
:1003F00040FA5A26F8394FE621271234145ACB0F07
:10040000E6A558BE4A68AB9535145A26EEAE28309C
:100410008BAF2AC60FEB21A6A5BD44C1E624F7C8C1
:1004200007F6C804C4072608E62E27746A2E207033
:100430008E4438AF261CFE393404E624F7C807354D
:1004400004F1C804265A542613E62E27026A2E8D7C
:1004500063A1222604A62320474A2044542613E6FB
:100460002E27026A2E8D4DA1232604A62220314C70
:10047000202EE62E27046A2E2026C602E72E81258E
:10048000260E6D21271A8D2C6CA46A218D40200A1E
:100490006C218D3A6AA426081A018E43F6AF2639DC
:1004A0008D041CFE20F4C60FEB21A7A5E625AE2A7D
:1004B000BD4A5039C60020F634068604BDF0093521
:1004C000863406E6258633AE2ABD4A503586340684
:1004D000C60020F1C666D7E9C6888D04C69A2020DA
:1004E00034368ECC88BD3B311F028ECC24D6E9BD7C
:1004F0003B311E12BD4A501E128CCC5626F135B629
:1005000034368ECC8ABD3B311F028ECC56D6E9BD27
:100510003B311E12BD4A501E128CCC8826F135B6D6
:10052000108EB000AF28CC43F6ED26C619E7A4C65E
:1005300014860A302FA7805A26FBE721E7226F2F67
:100540008632A723863CA7248677A725ADB8062543
:1005500005BD44B820F6398E25608DC4C6198ECCF1
:1005600024312FA6A0BD40FA5A26F886258ECC88C5
:10057000BD40FAC6888D308634C6228E486ABD4A90
:1005800050CE45B78ECC88BD40F2BD4614D7F70F8C
:10059000E9C660BD44E096F78ECC88BD40FA86225D
:1005A00097E9BD44E020DD86518E2590BD4A5386F3
:1005B000528E25A07E4A538634C6008E486ABD4AB4
:1005C000508DE48E2570BD4520C6198ECC56312F36
:1005D000A6A0BD40FA5A26F886258ECC8ABD40FAE0
:1005E000C6888DC38634C6228E487ABD4A50CE4610
:1005F000138ECC8ABD40F28D1BD7F70FE9C670BDB4
:10060000450096F78ECC8ABD40FA862297E9BD4513
:100610000020DE39B6C80C8502270432626EC4B6EB
:10062000C8048403BD44B8B1C80426E84D27E54496
:100630002606C11827DE5A394426D9C14027D55C81
:1006400039A68484F02707CC9999ED81ED81390F83
:10065000F5B6CC054425037E5ED38EA04C8DE28E8C
:10066000A0568DDD0D60275A8EA04C108EA056BD71
:100670004999254E1E21BD495D24220CF58E48E97D
:10068000CC4200BDE0098610A7248601A7A8318EC0
:10069000A056AFA82D8E70A0AFA82F20128EA05606
:1006A000AFC82D8E70A0AFC82F8601C6428D668E52
:1006B000A04CAFC82D8E20A0AFC82F4FC6418D557E
:1006C00020508EA04CBD495D24210CF58E48E9CC0C
:1006D0004200BDE0098610A7244FA7A8318EA04C88
:1006E000AFA82D8E20A0AFA82F20118EA04CAFC890
:1006F0002D8E20A0AFC82F4FC6428D190D60271236
:100700008EA056AFC82D8E70A0AFC82F8601C641EF
:100710008D037E3B64BD496324230CF534028E4770
:10072000651F985FBDE0098610A7243502A7A83190
:10073000AEC82DAFA82DAEC82FAFA82F39BD4980A8
:1007400024220CF534028E47651F985FBDE00986B0
:1007500008A7243502A7A831AEC82DAFA82DAEC872
:100760002FAFA82F396FC82CE6C831260B8E0AB0E0
:10077000C63C3404C65520098E58B0C6343404C66D
:10078000778668BD4A531F983147C602E72E350465
:10079000E7248E479DAF2CAEC82FBD49D2A642811B
:1007A000422721EDC832AFC83410AFC8368601BD2C
:1007B000E037AEC4A602814227F3ECC832AEC8349B
:1007C00010AEC836BD496324136DC8312605109F8D
:1007D000EC2003109FF08ECFEABD48B8BD498024BD
:1007E000196DC82C271D3047300F108ECD66C603FB
:1007F000BD3BCFBD3F8886058D7524701F12BD405F
:1008000091205130A9329A262C8ECF96BD48D331F3
:1008100026AEC82DC604BD3BCF108ECD3E6DC8316F
:100820002605109FEA2003109FEE3047300FC614B4
:10083000BD3BCF20B1BD48733401341010ACE12270
:100840000F8D756DC8312605109FEA2003109FEEAD
:10085000350124188EA0EA3147AEC82F3089EAF658
:10086000866AE625BD4A538660BDE0377EE00F34D8
:1008700026200C34268ECD668D24860425014C97C7
:10088000D58ECD748D1824040AD5270E300E8CCF4A
:10089000A425F18ECF961CFE35A61A0135A634107C
:1008A0003147312FC603BD40E1A1A026075A26F6E5
:1008B0001A0135901CFE35903420BD48D3304730A6
:1008C0000FC603BD3BCFAEC82DC604BD3BCF352000
:1008D0007E3FA734301F1210AC62270B3032860ED9
:1008E000BD40B1313220F035B06CC82C3147A6C8BC
:1008F000312608863CA724865520068634A7248600
:10090000771F8986678E295BBD4A531F988E4915CC
:10091000AF2C7E49C4302F108ECD3EC614BD3BCFC8
:10092000108ECD668ECF96BD48D3108ECD74BD3F50
:10093000A7AEC82D108ECD6CC604BD3BCF8E3F75C3
:10094000108ECD66C603BD3BCFBD3F888ECD3EA683
:10095000C83126049FEA20029FEE7E4768108ECDA4
:100960006C20363412108ECFAAAEC82D8D2B250CDC
:10097000312E108CCFF825F41CFE3592313A359289
:100980003412108ECD6CAEC82D8D0E25EF312E1089
:100990008CCF9625F41CFE359234361E12C6048D7B
:1009A00017C1042602840FA1A0220525075A26EFAD
:1009B0001CFE35B61A0135B68CC0002504BD40E1D9
:1009C00039A680398ECC16BD40F2BD437B8E2643BE
:1009D0002002C603A725E7A4AF28C614860A302F35
:1009E000A7805A26FB8E43F6AF26C60A6F21E72260
:1009F0008625A723ADB806251510AFC836EDC83239
:100A00008603BDE03710AEC836ECC83220E66EB8BB
:100A10000C4A4F5553542D28432931393832205729
:100A2000494C4C49414D5320454C454354524F4E3F
:100A300049435320494E432E0000000000000000AF
:100A400000000000000000000000000000000000A6
:100A50007E4A7F7E4ABF7E4AF77E4A707E4AAD7EDE
:100A60004AE57E4B3A7E4B2F4B5C7E4B367E4B2BC2
:100A70003467108E4BC61AFFF7CA018D1135E73463
:100A800067108E4B5C1AFFF7CA018D0235E7BFCAAB
:100A9000044810AEA6ECA18804C804FDCA0610BF25
:100AA000CA02C61AF7CA0088045F308B393467104F
:100AB0008E4BC6109FD11AFFF7CA018D1435E7344B
:100AC00067108E4B5C109FD11AFFF7CA018D02355B
:100AD000E7CE531F33C6EEC6A6C4109ED1BD4A8EC4
:100AE0006DC02AF4393467108E4BC6109FD11AFF9F
:100AF000F7CA018D1435E73467108E4B5C109FD117
:100B00001AFFF7CA018D0235E797D0444444448167
:100B10000A2F02860A109ED1BD4A8E96D0840F817C
:100B20000A2F02860A109ED17E4A8E0CF620020FF2
:100B3000F6CE4A5C20090CF620020FF6CE4A53107E
:100B40008E5D7B31A610AEA6AEA1E6A00DF6270104
:100B50005FA6A4847FADC46DA02AED394C284C3F1C
:100B60004C564C6D4C844C9B4CB24CC94CE04CF7F1
:100B70004D0E4D254D3C4D534D6A4D814D984DAF19
:100B80004DC64DDD4DED4E044E1B4E324E504E6760
:100B90004E7E4E954EAC4EC34EDA4EF14F084F1F6F
:100BA0004F3D4F544F6B4F824F994FAA4FB84FCF85
:100BB0004FD84FE84FF84FFC5005500E5025503C91
:100BC00050425052506C5083508F509B50A750B39E
:100BD00050BF50CB50D750E350EF50FB510751134B
:100BE000511F512B51375143514F515B5167517335
:100BF000517F518B519751A8508351B451C051CC62
:100C000050BF51D851E451F0524852595265527177
:100C1000527D52895293529B52A752AE52BA52C63B
:100C200052CA52D152D852F80307011100100010D5
:100C3000100110101010110010100010011100030D
:100C4000070010000110000010000010000010004C
:100C50000010001111100307011100100010000016
:100C60001000110001000010001011111003070105
:100C70001100100010000010001100000010100002
:100C800010011100030700011000101001001010E6
:100C900000101111100000100000100307111110B6
:100CA00010000011110000001000001010001001D1
:100CB00011000307011100100000101100110010B5
:100CC0001000101000100111000307111110100086
:100CD00010000100001000010000010000010000F0
:100CE0000307011100100010100010011100100086
:100CF0001010001001110003070111001000101066
:100D00000010100110011010000010011100030765
:100D100000000000000000000000000000000000D3
:100D20000000000000030701110010001010001067
:100D300011111010001010001010001003071111F5
:100D40000010001010001010110010001010001002
:100D50001111000307011100100010100000100015
:100D60000010000010001001110003071110001006
:100D700001001000101000101000101000101111D0
:100D800000030701110010001010000011110010E5
:100D900000001000100111000307011100100010E5
:100DA00010000011110010000010000010000003DE
:100DB00007011100100010100000100000100110B9
:100DC00010001001110003070100101000101000A6
:100DD0001011111010001010001010001002071157
:100DE00010010001000100010001001110030700C3
:100DF0000110000010000010000010000010100092
:100E00001001110003071000101001001010001154
:100E10000000101000100100100010030701000076
:100E20001000001000001000001000001000101151
:100E30001110040701101100100100101001001022
:100E4000100100101001001010000010010001003E
:100E500003071000101100101010101010101010C7
:100E600010100110100010030701110010001010E5
:100E700000101000101000101000100111000307E6
:100E800001110010001010001011110010000010CE
:100E900000001000000307011100100010100010E6
:100EA00010001010101010010001101003070111A4
:100EB000001000101000101111001010001001009F
:100EC00010001003070111001000101100000011A4
:100ED00000000010100010011100030701110010A4
:100EE0001010001000001000001000001000011190
:100EF0000003070100101000101000101000101067
:100F00000010100010011100030701001010001064
:100F10001000101000100101000101000010000479
:100F20000701000100100000101000001010010067
:100F30001010010010100100100110110003071023
:100F4000001010001001010000100001010010004D
:100F50001010001003070100101000101000100105
:100F60000100001000001000001000030701111024
:100F7000000010000100001000010000100000112E
:100F800011100307000100001000010000111110F2
:100F90000100000010000001000305000000000037
:100FA00000111110000000111110030400000000D6
:100FB00000000000001111100307011100100010C3
:100FC00010001000010000100000000000100001DF
:100FD0000710101010100010020700100100100080
:100FE00010001000010000100207100001000010A6
:100FF0000010001001001000010210100107000095
:00000001FF
