:1000000044D6B996C03DC320001F01DCBD44564410
:10001000564456308B96BE8407CEE7F1A6C635C44B
:100020003444D6B996C03DC320001F01DCBD445600
:100030004456308B96BE8403CEE7F9A6C635C43449
:1000400044D6B996C03DC320001F01DCBD445630E4
:100050008B96BE8401CEE7FDA6C635C40DE61027FB
:10006000FE8DBDB26ABDE7AABDB267BDE119BDE7AD
:10007000DA1F89E4844425035420FABDB4F3BDE0BB
:10008000FF390DE61027FE67102117748128270914
:1000900081AC2705C640BDB26FBDE9E19EC39FC7D5
:1000A0009EC59FC9BDB26D81BE270981BD1026C9FD
:1000B000C6C601865F34049D9FBDEA0D3504D7C2D4
:1000C000BDE7319DA510270085BDB26DC642BDB20A
:1000D0006F26188D318D5A9EBD34109EC39FBD8DE5
:1000E0005035109FBD9EC59FBF201BC646BDB26F39
:1000F0002004301F9FBFBDE9069EBF9CC527062474
:10010000F1300120EF399EBD3410BDE9DB24049E9F
:10011000C39FBD1F023121BDE7DA3540DFBD1700A7
:10012000F597D7BDE78896D7ADC4313F26F339356B
:1001300006DCBF3406BDE9CD24049EC59FBF1F0267
:100140003121BDE7DA3540DFBF1700D520D3108E4F
:10015000E9B8BDE9CD27AF2404108EE9C63406CE38
:10016000E9B1BDE9DB27C82403CEE9BF10A3E4351C
:100170001024041E321E013446340644562509114B
:1001800083E9B925038300013416BDE7E6ADC4BD9C
:10019000E788AE662717301FAF66ADF808ECE4E3DA
:1001A00062EDE4A36425E6EDE4ADA420E03510356E
:1001B000F69EBD30019FBD399EBF30019FBF399E65
:1001C000BD301F9FBD399EBF301F9FBF39DCC59317
:1001D000BF24F93401405082003581DCC393BD2037
:1001E000F09EC79FBD9EC99FBF81AC2703BDEA0497
:1001F000C6ACBDB26FBDB26ABDB734108E00C3BD10
:10020000E7B92006BDB26ABDE7B27EB267BDE7AD11
:10021000CE00C37EE7B0CEEA25D6E6C00158EEC5D3
:1002200039CEEA4539EA34EA3DEA2DEA344424037A
:1002300046300139444424FB86C03001394381F003
:100240002602300139D6B93A390DE61027FCA01044
:100250002115AD814026029D9FBDEB60BDEA04BD26
:10026000E7ADAEC49FCBAE429FCDBDB26DBDB73D35
:10027000CE00CFAFC4BDE7B0860197C2BDE7188EF0
:1002800001009DA5270FBDB26DBDB141964F8B08F2
:10029000974FBDB74096E6810222041F10308B9F16
:1002A000D1C601D7C2D7D8BDEB7B3406BDEB7BDD11
:1002B000D9350634069EC39FBD9EC59FBFCEEB9B1E
:1002C0008401270350CB08585833C53440BDEBBDDB
:1002D0003540335E3410BDEBBD3520A6E4840327E2
:1002E00006810327021E129FC31F2044569ED1BDC4
:1002F000EBCB1F204D1026C951D7C51F3097C6A67E
:10030000E48102250E8106240ADCCB93C324114F1D
:100310005F200DDCCBD3C325051093D32502DCD39E
:10032000DDC3A6E48104250ADCCD93C524114F5F0B
:10033000200DDCCDD3C525051093D52502DCD5DDF8
:10034000C50DD8260317FE06350604D825051093DB
:10035000D9270C5CC10826044C5F84077EEAB339B8
:10036000CE00D38E027FAFC496E681022E058E01A9
:100370003FAFC48E00BFAF427EE7B05F9DA527119F
:10038000BDB26DBDB141964F8B06974FBDB70EC440
:100390003F1F98C4074444443900000001FEC519BA
:1003A00019FB1631F2F4FB4A51EC8461F9E1C7788C
:1003B000AED4DC8E3BC5E5A269B506B5069ECFEC92
:1003C000C427078300018D031F213934766F64A68B
:1003D000633DED66EC613DEB668900ED65E6E4A604
:1003E000633DE365ED6524026C64A6E4E6623DE3EB
:1003F00064ED6435F60DE61027FAF410211401813E
:100400004026029D9FBDEA04BDE7AD860197C2BDAF
:10041000E718DCB434069DA52703BDE71896B59709
:10042000D83506DDB4BDE1194F3456BDEB60BDE7EC
:10043000E6DFD9BDECBE270FBDED01860197D7BD24
:10044000ED2E00D7BDED2E10DFDC0DDB260310DE18
:10045000DC35560FDB10DFDC30019FBDDFD197D7D5
:1004600027582B065CD1D623055F5D27DD5AD7C000
:10047000BDECBE2711108300032505301EBDED1510
:10048000BDED01BDED2E4353D3D1DDD12F17BDE915
:10049000B1BDECF12605CCFFFF20EDBDE9BFBDED00
:1004A0003A8D2420DEBDE9B1308B9FBD43538300DC
:1004B000012F041F018D5E7EEC4ABDE0FF39BDEDCA
:1004C0003A108EE9BF2006108EE9B1ADA4DE8A9EF7
:1004D000BD2B179CD3221334608D16270BBDE792DA
:1004E00035603341ADA420E935601F301F01938A88
:1004F00039AD9F00D91F89D4D83406A484A16135B1
:1005000086DDCD109EC38D32109FBD8DBA9ECD303D
:100510008BC3000139DDCB3520DCBD341696D740C6
:10052000D6C034063420C606BDED3FDCCB39DDCB6A
:100530003520DCC3341696D720E69EBD9FC33950C4
:1005400032E5118CBFF1102500045032E53910CE90
:10055000DFFDBDE0FF7EAC44BDB73D102112A18C94
:1005600000FF1022C6E49FD12708BDB26DBDB73D84
:100570009FD3BDE0CBBDE119DCD15D2608CCFFFFE8
:10058000FDC0002038108EC000ECA41083FFFF26B1
:10059000048D31201BD6D2E1222737EEA427041F79
:1005A0003220F41F23EC23312531AB8D1710AFC45B
:1005B000CC0000EDA4D6D2E722DCD3ED23BDE0FFD2
:1005C000BDE097391F213005DCD3308B8CDF002252
:1005D0000539C6122002C60C10CEDFFDBDE0FFBDFE
:1005E000E0977EAC468EEEC09FD55F20078EEEEF83
:1005F0009FD5C6010DE61027F8F510211202D7D8B5
:10060000814026029D9FBDE9E1BDB26DBDB70BD70C
:10061000D30FD49DA5272103D4BDB26D0DD82603D9
:1006200016C454C6058EEEE0EE81A18027065A2638
:10063000F77EB277DFD59D9FBDE0CBBDE119D6D364
:10064000BDEF18DCBD1093C32F069EC39FBDDDC355
:10065000DCBF1093C52F069EC59FBFDDC596E6C6BD
:10066000F881032708C6FC81022602C6FE1F989463
:10067000BE97BED4C4D7C4BDE9DBDDC3BDE9CDC3DD
:100680000001DDC596E68102270C8103260404C320
:1006900006C404C306C404C306C4DCC3C30001DD2E
:1006A000C3BDE7DA109ED5D6C43410ADA45A26FBDC
:1006B0003510BDEA450AC626EEBDE0FFBDE097391C
:1006C000A6808D03A7C439DECF3341DFCF1193D18C
:1006D00022013910CEDFFDBDE0FFBDE0977EB44AB8
:1006E000EEEFBDEEF6BEEF07B1EEFEB0EF10A88D57
:1006F000D6A6C4A780398DCFA6C443A780398DC79D
:10070000A6C4A484A780398DBEA6C4AA84A78039B4
:100710008DB5A68443A78039108EC000A6A481FFA2
:10072000260A7EEED310AEA41027FFA7E12226F5FD
:10073000EC233124109FCF312131AB109FD1390DE3
:10074000E61027F7AA102110B7BDB26ABDE7B2BD07
:10075000B267BDB26DBDB1560D062606BDBDD9BD91
:10076000B516BDB657F7FE18108EFE195A2B06A601
:1007700080A7A020F796E6C62881032502C6504F21
:1007800093BD2B7DF1FE182205F7FE1827738617FF
:1007900091C02C0297C0BDF08CBDE7DA108EFE1917
:1007A000F6FE18A6A4847F80202A028600A7A05AFD
:1007B0002EF196E64A48108EF00210AEA6109FD198
:1007C000860897D3108EFE19CEF09DF6FE0ABDE77F
:1007D00042D7B5BDE119B6FE183432E6A04F5858DD
:1007E000495849A6CBAD9F00D17AFE182EED35327F
:1007F0000AD3270AB7FE183341BDEA4520DBBDE026
:00000001FF
