:100000008401102601078EBDC0BDBCA02B15BDBD4F
:10001000D9A68026FCA682A7018C03DA26F78625BE
:10002000A78439964F97472703BD91CD9647102B4C
:100030000081409BD98009BD90EABD9263BD9202C8
:100040009647BD92819647BD924996D82602335F66
:100050004ABD90EABD91854D2706C12A2702E7C017
:100060006FC48E03DA30019F0F963A901090D92713
:1000700038A684812027EE812A27EA4F3402A68001
:10008000812D27F8812B27F4812427F08130260E3B
:10009000A6018D1625083502A78226FA20C735024B
:1000A0004D26FB9E0F8625A7823981302504803A94
:1000B00080C63996D827014A9B472B014F34022A24
:1000C0000A3402BDBB8235024C20F49647A0E0976B
:1000D000478B092B1996D9800990478D0DBD9263E6
:1000E000201D34028630A7C035024A2AF53996D938
:1000F0008DF8BD924D86F790478DEF0F450FD7BD18
:10010000920296D82602DE399B4716FF43964F345B
:10011000022703BD91CD96D827014A9BD97F03DAE8
:10012000D6DAC40426037303DABB03DA8009340287
:100130002A0A3402BDBB8235024C20F4A6E42B010E
:100140004F409BD94CBB03DA97450FD7BD92023580
:1001500002BD928196D82602335FE6E02709D64792
:10016000CB09D0D9F003DA862B5D2A03862D50A760
:10017000418645A7C1862F4CC00A24FBCB3AEDC16E
:100180006FC47E90548E03DBE68434048620D6DA76
:10019000C52035042708862AC12026021F89340479
:1001A000A780E6842710C145270CC13027F2C12C57
:1001B00027EEC12E26048630A78296DA8510270402
:1001C000C624E782840435042602E7823934404F8E
:1001D0009747D64FC18022118EBDC0BDBACA96477F
:1001E000800920ECBDBB820C478EBDBBBDBCA02EE0
:1001F000F38EBDB6BDBCA02E07BDBB6A0A4720F179
:1002000035C03440BDB9B4BDBCC835408EBEC5C6CE
:10021000808D369653AB0397539652A90297529608
:1002200051A90197519650A98497505C565928E3DB
:100230002403C00B50CB2F30041F98847FA7C053DA
:10024000C4808CBEE926CA6FC40A452609DF3986F8
:100250002EA7C00FD7390AD72608860397D7862C32
:10026000A7C03996478B0A97454C800324FC8B0521
:1002700097D796DA8440260297D73934028DCA354B
:10028000024A2B0A34028630A7C0A6E026ED39CEFA
:10029000929C96B648EEC6398DF56EC492A692C26F
:1002A00092A692C292A63444D6B996C03DD3BA1F44
:1002B00001D6BE5454543A96BE8407CE92DDA6C6EB
:1002C00035C43444D6B996C03DD3BA1F01D6BE5406
:1002D000543A96BE8403CE92E5A6C635C48040202B
:1002E0001008040201C0300C03D6B93A3944240383
:1002F000463001394424F686C0300139BDB7341088
:100300008E00BDC1C02502C6BF4FED22DC2B10837D
:1003100001002503CC00FFEDA439BD92FCCE00BD49
:1003200096B681022406EC424456ED4296B681040C
:100330002406ECC44456EDC439BD93B2BD931DBD33
:100340009298A484D6B656241281042504464620E9
:10035000F84C489BC1441F897EB4F34D27F84F20C9
:10036000F0860120014F97C2BDB26ABD931ABD95B8
:1003700081BDB267BD9298E68434041F8943A4848A
:10038000D4B53404AAE0A784A0E09ADB97DB399EB9
:10039000C79FBD9EC99FBF81AC2703BD93B2C6ACAA
:1003A000BDB26FBDB26ABDB734108E00C3BD93033A
:1003B0002006BDB26ABD92FC7EB26781891027F526
:1003C000FF8128270981AC2705C640BDB26FBD93C8
:1003D0008F9EC39FC79EC59FC9BDB26D81BE2709B1
:1003E00081BD10261E91C601865F34049D9FBD9479
:1003F000203504D7C2BD959A9DA5102700A3BDB294
:100400006DC642BDB26F26218D3A8D629EBD3410FD
:100410009EC39FBD8D5835109FBD9EC59FBF202494
:10042000BD931DCE00C37E9320C646BDB26F20048F
:10043000301F9FBFBD94449EBF9CC5270624F1304A
:100440000120EF399EBD3410BD971D24049EC39F2B
:10045000BD1F023121BD92983540DFBD8D3697D743
:10046000BD937796D7ADC4313F26F3393506DCBF4F
:100470003406BD971024049EC59FBF1F023121BDC5
:1004800092983540DFBF8D1520D492ED92F492ED15
:1004900092F492EDCE948AD6B658EEC539CE92E952
:1004A00039108E950DBD97101027FF982404108EDB
:1004B000951B3406CE9506BD971D27B02403CE9517
:1004C0001410A3E4351024041E321E0134463406F1
:1004D000445625091183950E25038300013416BD6A
:1004E000928FADC4BD9377AE662717301FAF66AD50
:1004F000F808ECE4E362EDE4A36425E6EDE4ADA4E2
:1005000020E0351035F69EBD30019FBD399EBF30CD
:10051000019FBF399EBD301F9FBD399EBF301F9FB9
:10052000BF39CE00D38E00FFAFC48E00BFAF427E76
:100530009320270E8D2486553D9EBAE7809CB726D2
:10054000FA39D6B320F0812C27088D0ED7B29DA59D
:100550002707BDB26D8D03D7B339BDB70BC10910E5
:10056000241EE74FC10525048608C004340296B650
:100570004624085D2602C6045A35825625F85F20B7
:10058000F8BD959A9DA527108129270CBDB26D81D4
:100590002C2705BD955A8D0A0EA5D6B20DC226028E
:1005A000D6B3D7B486553DD7B539262334168EFF3A
:1005B000C8A70AA708A706A704A702A701A71EA7FE
:1005C0001CA71AA718B6FF228407B7FF2235963456
:1005D0001696B68B03C6103DCA80DAC1B6FF2284D8
:1005E000073402EAE0F7FF2296BA44BD960F96B6AA
:1005F0008B03810726014A8D023596C6038EFFC004
:10060000462404A7012002A78430025A26F239C6E4
:10061000078EFFC620EAB6FF2284F79AC1B7FF22F1
:1006200039812C272BBDB70BC105244196BC97BA45
:1006300058CE9707ABC59119223397B7335FA6C53C
:1006400097B954D7B64F97B3860397B29DA5271C89
:10065000BDB7385D27175A86063DDBBC3404DBB7CF
:10066000D0BAD1192207D7B73504D7BA397EB44AE0
:10067000812C270BBDB70B5DBD95AA9DA527EDBDB0
:10068000B7385D2702C608D7C1208BBDB70B5D27E1
:10069000DCC10924D886063DDBBC1F98C6011F02B9
:1006A0001093B725C89319D31B1F014C932124BD68
:1006B000BD80D012DE1B9F1B11931B2417A6C2A75F
:1006C0008211931926F7109F196F3FBDACEFBDAD96
:1006D000267EAD9EDE19109F196F3FA6C0A7A01001
:1006E0009C1B26F720E5C61ED719860697BC97BA2D
:1006F0004F97B6861097B9860397B2860C97B79E28
:10070000196F1F7EAD191006200C100C2018201830
:10071000DCC593BF243B3401BD9DC33581DCC3934D
:10072000BD20F18D1A3406C6A5BDB26F8D113510EE
:100730001F03108E0300EC81EDC1313F26F839BD57
:10074000B70B5D270DD11922095A86063DDBBC1E69
:1007500089397EB44A5F2002C601D7D8BD01A08185
:100760004026029D9FBD938FBDB26DBD98CC1F10DA
:10077000EE84335E33CBDFD13002E684583A9FCF2C
:10078000960626CE0FD49DA5272D03D4BDB26D0DA0
:10079000D82607C647BDB26F2030C6058E9839EE01
:1007A0008110AE81A18027065A26F47EB277109F71
:1007B000D5DFD99D9F2013C6F896B6462402C6FC05
:1007C0001F98D4BED7BE94C497C4BD971D24049E61
:1007D000C39FBDDDC3BD971024049EC59FBFDDC56B
:1007E00096B646DCC32404D3C3DDC3BD9420DCC36A
:1007F0009EC530019FC50DD42658445644564456D4
:00000001FF
