:10000000AB805A26FB9B7C97809E7E8D1B863C8D09
:1000100019967C8D15967D8D114D2708A6808D0A29
:100020000A8126F896808D0286553402C60196858F
:10003000B7FF20108EA85CE5E4260DA6A0108CA8C2
:10004000802712B7FF2020F3A6A1108CA8802705D7
:10005000B7FF2020F397855824D435828292AABA1C
:10006000CADAEAF2FAFAFAF2EADACABAAA927A6AC8
:1000700052423222120A0202020A12223242526A08
:100080008D3F3410BDB7383510C10822485A2B05B2
:1000900086103D2008E6842A03C470215F34048D55
:1000A0006CA6842B014F840F9A86AAE08A80A784CD
:1000B000398D0E8D584FE6842AF20386D486E78464
:1000C00039BDB26ABD019DBDB70BC13F22073404E3
:1000D000BDB738C11F227134045486203D8E040000
:1000E000308BE661543A350684015649C610544AAD
:1000F0002AFCD786398DCDC6FFA6842A0D94862783
:1001000008E68454545454C4075CBDA5E87EB26725
:10011000BD01A02713BDB70BC108221B5D27065ADE
:1001200086103DCA0FCA808CC6608E04009F88E787
:10013000808C05FF23F9398DEF8EA1657EB99CBDBA
:10014000B26DBDB70B5D263C7EB44A8DF5D78C8D64
:10015000EE86043DDD8DB6FF038A01B7FF030F086D
:100160008D408D128D1F86FE8D1D8D1986028D1777
:100170009E8D26F04F8C8608A7E2B6FF2384F7AA4F
:10018000E0B7FF2339867EB7FF20968C4C26FD39D9
:100190001F899D9FC1AA27DCC088BDA5C95C8D02AF
:1001A00020D4CEFF018D00A6C484F75724028A080C
:1001B000A7C139B6FF032A0DB6FF02BE008D270581
:1001C000301FBF008D3BBDB70EC10310220A7B5DFF
:1001D00026028D0A8E015AD653E6857EB4F38D949D
:1001E0008E015EC603860AEDE38DB7CC4080A7E2A0
:1001F000CA02F7FF20C802B6FF002B03E0E48CEB35
:10020000E4A6E044810126E65454E11F27046AE491
:1002100026D9E782ECE15A2ACC39813A240A812096
:1002200026020E9F803080D039BC7ABCEEBC930190
:1002300012BF1FBF78B750B681B4FDB716B6A0B6CF
:100240008CA5CEA9C6B6ABB6C8B6CFA8F5A564B482
:10025000EE79B9C579B9BC7BBACC7BBB917F011D66
:1002600050B2D546B2D4464FD247CF5245CDA7451E
:100270004C53C549C6444154C15052494ED44FCE47
:10028000494E5055D4454EC44E4558D44449CD529C
:100290004541C45255CE524553544F52C552455410
:1002A0005552CE53544FD0504F4BC5434F4ED44C64
:1002B0004953D4434C4541D24E45D7434C4F41C49A
:1002C00043534156C54F5045CE434C4F53C54C4CFC
:1002D0004953D45345D452455345D4434CD34D4F41
:1002E000544FD2534F554EC441554449CF455845BC
:1002F000C3534B4950C6544142A854CF5355C254DE
:100300004845CE4E4FD4535445D04F46C6ABADAA08
:10031000AFDE414EC44FD2BEBDBC5347CE494ED4D2
:100320004142D35553D2524EC45349CE504545CB8A
:100330004C45CE535452A45641CC4153C34348522A
:10034000A4454FC64A4F595354CB4C454654A4522A
:1003500049474854A44D4944A4504F494ED4494EAE
:100360004B4559A44D45CDAD47AE86AEE3AEE3AEA9
:10037000E3AF14AEE0B8F7AF42AFF5AE02B0F8B3FA
:100380004EB046AE75ADE4AEC0AE09B757AE30B7AD
:1003900064AE41AD17A498A44CA5F6A416B75EA808
:1003A00080A8B1A910A7BDA94BA990A53EA5EC4E68
:1003B00046534E52474F4446434F564F4D554C427D
:1003C0005344442F304944544D4F534C535354439A
:1003D0004E4644414F444E494F464D4E4F49454489
:1003E00053204552524F520020494E20000D4F4B92
:1003F0000D000D425245414B003064C6129F0FA6BE
:100400008480802615AE019F119E3B27099C1127F1
:10041000099E0F3A20E59E119F3B9E0F4D398D1787
:10042000DE4133419E433001A68236029C4726F8C6
:10043000DF45394F58D31FC3003A250810DF171086
:10044000931725EEC60CBD018EBD0191BDA7E9BD78
:10045000A974BDAD330F6FBDB95CBDB9AF8EABAF85
:100460003A8D3D8D3B8EABE0BDB99C96684C270321
:10047000BDBDC5BDB95C8EABEDBDB99CBDA390CE75
:10048000FFFFDF6825F60D701026F8339FA69D9FAD
:1004900027EA2511C6300D6F26ACBDB8217EADC050
:1004A000A6807EB9B1BDAF679E2BBF02DABDB82171
:1004B000D7038D4D2512DC47A384D31BDD1BEE84AF
:1004C0003702A7809C1B26F8B602DC271CDC1BDD4C
:1004D00043DB038900DD41BDAC1ECE02D83702A745
:1004E000809C4526F89E419F1B8D368D02208D9E57
:1004F00019EC8427213304A6C026FCEF84AE8420A7
:10050000F0DC2B9E19EE84270910A3022306AE848B
:1005100020F31A019F473926FB9E196F806F809F39
:100520001B9E19BDAEBB9E279F23BDADE49E1B9FA6
:100530001D9F1F8E01A99F0BAEE410DE216FE20FFD
:100540002D0F2E0F086E8486809708BDAF89BDAB36
:10055000F9326226049E0F3285C609BDAC33BDAEAA
:10056000E8DC683416C6A5BDB26FBDB143BDB1416C
:10057000D654CA7FD450D750108EAD7F7EB1EA8E4C
:10058000BAC5BDBC149DA581A926059D9FBDB141DD
:10059000BDBC6DBDB1E6DC3B340686803402BD01D6
:1005A0009A1CAF8D469EA69F2FA6802707813A27CB
:1005B0000F7EB277A6819700275BEC80DD689FA64F
:1005C0009D9F8D0220D827784D102A01BC81A3223F
:1005D0000BBE0123481F893A9D9F6E9481B423D19D
:1005E0006E9F012D9E19301F9F3339BDA1C1270A6F
:1005F0008103271581132703978739BDA1CB27FBDB
:1006000020EEBDA4269DA520021A0126339EA69F9A
:100610002F060032629E688CFFFF27069F299E2FBF
:100620009F2D0F6F8EABF10D00102AFE467EAC6839
:10063000260EC6209E2D1027FE0C9FA69E299F6881
:1006400039272CBDB3E634069E279DA5270CBDB2E5
:100650006DBDB73D301F9C7422181F10A3E12512F9
:100660001F0383003A250B931B2507DF219F277E5D
:10067000AD267EAC44BD0194BDA4269DA51027FEE9
:10068000A0BDAD2620191F899D9FC1A52716C1A613
:100690002645C603BDAC33DEA69E6886A634528DC1
:1006A000037EAD9E9DA5BDAF678D403001DC2B1054
:1006B000936822029E19BDAD052517301F9FA639EC
:1006C00026FD86FF973BBDABF91F148126270BC67D
:1006D000048CC60E7EAC467EB27735529F68DFA68C
:1006E0008D068C8D069FA639C63A865FD7015F9E20
:1006F000A61F98D6019701A68427EC3404A1E02711
:10070000E63001812227EA4C26023001818626E765
:100710000C0420E3BDB1419DA581812705C6A7BD7D
:10072000B26F964F26130F048DB64D27BA9D9F8149
:100730008426F50A042AF19D9F9DA51025FF657E5C
:10074000ADC6BDB70BC681BDB26F340281A627040A
:1007500081A526830A53260535047EAE889D9F8D8C
:1007600006812C27EF35849E8A9F2B246180309749
:1007700001DC2B811822DB58495849D32B5849DB1F
:10078000018900DD2B9D9F20E2BDB3579F3BC6B37F
:10079000BDB26F96063402BDB156350246BDB148B2
:1007A00010270C8F9E52DC2110A30224119C1B25C4
:1007B0000DE684BDB50D9E4DBDB6438E00569F4DD2
:1007C000BDB675DE4D9E3B3726A78410AF02393F7C
:1007D0005245444F0D00C6220D6F27037EAC46964E
:1007E0000927079E319F687EB2778EAFCEBDB99C38
:1007F0009E2F9FA639C6169E68300127DF8D030FF6
:00000001FF
