:10000000414A2B066DC02AFC20F7A6C48D066DC0A0
:100010002AF820B7108C03D62406847FA7A06FA4EB
:1000200039BD01A39EA6CE02DC0F430F44A6802754
:10003000210D43270FBDB3A2241881302504813937
:1000400023100F438120270A9742812227380D442D
:100050002719A7C02706813A27CF20D16FC06FC0CC
:100060001F308302DA8E02DB9FA639813F26048689
:100070008720DF81272613CC3A83EDC10F42A6806B
:1000800027D0914227CCA7C020F481302504813CA1
:1000900025C0301F34500F41CE01160F42334AA6FF
:1000A000C4273110AE41AEE4E6A0E08027FAC1805B
:1000B000263832623540DA4296412606C184260649
:1000C000863AEDC12094E7C0C18626020C44C18265
:1000D00027AA2086CE011B034126C03550A680A743
:1000E000C0BDB3A225EC034320E80C424A27AE3141
:1000F0003FE6A02AFC20AF275F8D030F6F398140B8
:100100002605BDA554200A8123260DBDA5A5BDA4A5
:10011000069DA52743BDB26DBD0179274881A4275F
:100120005D812C2741813B276EBDB1569606340276
:100130002606BDBDD9BDB5168D653504BDA35F0DC1
:100140006E27068D139DA520D25D26089DA5812CC6
:1001500027148D589DA526C5860D2055BDA35F2764
:10016000F7966C26F339BDA35F270AD66CD16B25B1
:10017000068DE52022D66CD06A24FC502010BDB735
:100180000981291026F8F0BDA35FD06C23090D6EFC
:1001900026058D185A26FB9D9F7EB91BBDB518BD3F
:1001A000B6575C5A27BFA6808D0720F786208C861D
:1001B0003F7EA2828EBEC02009BDBB2F03540362C6
:1001C0002003BDBB2F5D102702808E005C1F895D60
:1001D000276CD04F2769250A974F966197548E0058
:1001E0004F50C1F82F594F6401BDBABAD6622A0BDD
:1001F0006301630263036304438900976396539921
:100200006097539652995F97529651995E9751967F
:1002100050995D97505D2A4425028D5D5F9650266A
:100220002E965197509652975196539752966397A0
:10023000530F63CB08C1282DE44F974F9754398D46
:100240006D5F20A85C086309530952095109502ABF
:10025000F3964F3404A0E0974F23DE8C2508086303
:1002600086009763200C0C4F272806500651065233
:10027000065324048D0D27EE390354035003510314
:100280005203539E5230019F5226069E5030019FCA
:100290005039C60A7EAC468E0012A6049763A603A8
:1002A000A704A602A703A601A702965BA701CB0895
:1002B0002FE89663C008270C670166026603660490
:1002C000465C26F43981000000008D6327608D783C
:1002D00086009713971497159716D6538D22D663D9
:1002E000D7AED6528D1AD663D7ADD6518D12D663FE
:1002F000D7ACD6508D0CD663D7ABBDBC0B7EBA1C29
:100300002795439613562726241696169B60971614
:100310009615995F97159614995E97149613995DA3
:1003200046971306140615061606634F20D539ECBA
:100330000197618A80DD5DD661D854D762EC03DD18
:100340005FA684975CD64F394D27169B4F464928A8
:10035000108B80974F270C96629754399654432000
:10036000023262102AFED27EBA92BDBC5F270D8B8C
:100370000225F40F62BDB9CD0C4F27EB3984200064
:100380000000BDBC5F8EBB7D5FD762BDBC148C8D91
:100390009E2773004F8DB10C4F27CC8E0013C604DF
:1003A000D703C6019650915D26139651915E260D96
:1003B0009652915F2607965391602601431FA859D4
:1003C000240AE7800A032B34272EC6011F8A250E34
:1003D0000860095F095E095D25E32BC820DF966090
:1003E00090539760965F9252975F965E9251975E98
:1003F000965D9250975D20D8C64020D0565656D76D
:10040000638D087EBA1CC6147EAC469E139F509E18
:10041000159F52393402EC0197548A80DD500F63E6
:10042000E684AE039F52D74F35828E004520068E5C
:1004300000408C9E3B964FA78496548A7F9450A789
:10044000019651A702DE52EF0339966197549E5CE4
:100450009F4F0F63965E975196549E5F9F5239DC73
:100460004FDD5C9E519F5E9E539F604D39D64F2756
:1004700008D65459C6FF250150398DF1D7500F5178
:10048000C68896508080D74FDC8ADD529763975498
:100490007EBA180F5439E68427D3E601D8542BD1FD
:1004A000D64FE184261DE601CA7FD450E101261310
:1004B000D651E102260DD652E1032607D653E004B9
:1004C00026013956D85420ABD64F273DC0A09654AC
:1004D0002A05035BBDBA7B8E004FC1F82E06BDBA5C
:1004E000AE0F5B390F5B96544906507EBABAD64FB1
:1004F000C1A0241D8DD2D7639654D754808086A086
:10050000974F965397017EBA18D750D751D752D7E5
:1005100053399E8A9F549F4F9F519F529F479F459B
:100520002564BD0197812D260403552004812B26C7
:10053000049D9F2551812E2728814526289D9F2592
:100540006481AC270E812D270A81AB2708812B27D8
:1005500004200603489D9F254C0D4827080047208E
:1005600004034626CC96479045974727122A09BD93
:10057000BB820C4726F92007BDBB6A0A4726F996BD
:10058000552A8E7EBEE9D645D046D7453402BDBB3E
:100590006A3504C0308D022098BDBC2FBDBC7C8E56
:1005A00000407EB9C2D6475858DB475880303404E3
:1005B000ABE09747209F9B3EBC1FFD9E6E6B27FDC7
:1005C0009E6E6B28008EABE78D0CDC68DD50C6900C
:1005D00043BDBC868D037EB99CCE03DA8620D654FB
:1005E0002A02862DA7C0DF6497548630D64F102785
:1005F00000C64FC18022088EBDC0BDBACA86F7971B
:10060000458EBDBBBDBCA02E0F8EBDB6BDBCA02E01
:100610000EBDBB6A0A4520F1BDBB820C4520E2BD80
:10062000B9B4BDBCC8C60196458B0A2B09810B2401
:10063000054A1F8986024A4A9747D7452E0DDE6430
:10064000862EA7C05D27048630A7C08EBEC5C68093
:100650009653AB0397539652A90297529651A9010C
:1006600097519650A98497505C565928E32403C0AB
:100670000B50CB2F30041F98847FA7C00A45260457
:10068000862EA7C053C4808CBEE926C4A6C2813082
:1006900027FA812E2602335F862BD647271C2A0392
:1006A000862D50A7428645A741862F4CC00A24FBC1
:1006B000CB3AED436F452004A7C46F418E03DA396E
:1006C0008000000000FA0A1F0000989680FFF0BD2D
:1006D000C0000186A0FFFFD8F0000003E8FFFFFF85
:1006E0009C0000000AFFFFFFFF964F2702035439CA
:1006F0009F64BDBC2F8D058D088E00407EBACA9FB9
:1007000064BDBC2A9E64E680D7559F648DEE9E64CE
:1007100030059F64BDB9C28E00450A5526EE39BD2D
:10072000BC6D2B2127158D10BDBC2F8D0E8E00406A
:100730008DCA8EBAC5BDB9C27EBCEEBE01169F5031
:10074000BE01189F52BEBF749F5DBEBF769F5FBD46
:10075000BAD0DCADC3658BFD0118DD52DCABC9B08E
:100760008905FD0116DD500F548680974F96159729
:10077000637EBA1C40E64DABBDBC5F8EBFBDD6618B
:10078000BDBB89BDBC5F8DB00F62965CD64FBDB955
:10079000BC8EBFC2BDB9B9965434022A09BDB9B4E2
:1007A00096542B05030ABDBEE98EBFC2BDB9C23542
:1007B000024D2A03BDBEE98EBFC77EBEF083490F3E
:1007C000DAA27F000000000584E61A2D1B862807A8
:1007D000FBF88799688901872335DFE186A55DE706
:1007E0002883490FDAA2A154468F138F524389CD33
:1007F000A681FEEEFEF1FEF4FEF7FEFAFEFD8C1B76
:00000001FF
