:10000000983AC6C0E784393402F6095B5CBDC7493B
:10001000271796EBA1012611FE0974A64DA1022611
:1000200008A600A1E41026DDF35A26E13582BDA51D
:10003000A50F6F5D102FEC12BDC749A6001027DB7E
:10004000BA814027C17EA61686108C86200D6F2FA0
:10005000B5AFE4BDC7443406A6001027DB9D814040
:100060002706A1E426DF3596AE648CB00C26F7BDDA
:10007000B26D8122260BBDB244BDB657C63BBDB2A0
:100080006F8EB01EAF6435962F25F1095B1022DD0F
:100090008E35900D6F2F18326234160F6EBDC74427
:1000A000E6064F8E10007EA37C0D6F2F0232623960
:1000B00032621CAF7FFF02B6FF0043847F2703BD7F
:1000C000ADEB9EA69F2FA6802707813A27257EB2FB
:1000D00077A681970026037EAE15EC80DD689FA68B
:1000E00096AF270F865BBDA2829668BDBDCC865DAC
:1000F000BDA2829D9F1FA9819826037E83168197AA
:1001000026037E83111F9ABDADC620A63262966F6C
:100110003402BDA5AEBDA3ED0D6F102FDCBCBDC775
:1001200044E600C1401027DCED5FA688102603E6F8
:1001300088177EA5E48EC2A96FE2B6095A97EBCE66
:10014000094CCC2008A7C05A26FBC603BDA59ABD02
:1001500087483384C1022512A641813A260CA6C4E1
:1001600081302506813322028D338E094C5C5A265C
:100170000C32618C094C2667C63E7EAC46A6C08117
:100180002E272D812F2729813A27098C095427E80A
:100190008D3E20DA8DDD8D055D26DD35826362279B
:1001A000D7A6C1C002803025CF810322CB97EB397F
:1001B0008DC18E09578620A7828C095426F95A27AB
:1001C000DAA6C0813A27CD8C095727AC8D0220EEE4
:1001D000A78027A4812E27A0812F279C4C279939FF
:1001E000814D102705828D4B9E8ABF09579DA527FB
:1001F00021BDB26DC641BDB26F26E47309588D04AE
:100200004F7EB764864F8C8649F6095B5CD76F7E5C
:10021000C48D8DF086FFBDCC24DC1B9319BDCC248E
:100220001F98BDCC249E19A680BDCC249C1B26F70C
:100230007EA42D8EC2A67EC9384FC6FF2012812211
:100240001026B85886022007814D102705734F5F8E
:10025000B70959F7095E8DDB9DA52710BDB26DC6A4
:1002600052BDB26FBDA5C78603B709598D99B609AE
:1002700058270B7D095E2603BDAD197EAC7CB609FF
:1002800057BA095E1026DB8EBDAD1973095DBDCD71
:10029000BCBDCDBC3402BDCDBC1F893502D319BD58
:1002A000AC379E19BDC5C4D6702604A78020F57F43
:1002B000095D9F1BC603A68226035A26F99E1B9F33
:1002C0001B6F805A2AF9BDA42DBDAD21BD829CBDF6
:1002D000ACEF7709592503BDA4267709591025E20B
:1002E000BD7EAC730D6F2EDE39F6095B5C3404D72E
:1002F0006F8D0E35045A26F5390D6F102FB78732E2
:1003000062BDC7440F6F9FF1A60027EC34026F0057
:10031000E601D7EB81202619E688188680AA05ED2C
:1003200088136C04E603BDC755A7013A6C067ECB63
:10033000C3814026F9EC09AE0B318B343631E4DE53
:100340001B11931D270EA64133422A028D283345E7
:1003500020EF354011931F273A1F30E3423406A6A1
:10036000412AEFE64458CB054F33CB11A3E427E2F3
:100370008D04334520F5AE42BC0948240EAC22253D
:100380000AAC2425071F10A3A4ED42396FC46F42A5
:100390006F4339F6095B5C3404BDC749A600814050
:1003A000260BEC0B10A3242504A3A4ED0B35045A53
:1003B00026E5355611B309482706A6C0A78020F4C4
:1003C000BF0948BDC7556A006D012703BDC71E9E02
:1003D000F1350281202708814026B0A60F270ABDEB
:1003E000C763338819DFEE8D2CA688132A9DE68813
:1003F00012C40786203DCE0600DFEE31CBE6881220
:10040000545454CB03D7EDCC110297EC8D09EC88F2
:1004100013847FED2EC603D7EA7ED6F20D6F102F20
:10042000B651326234168E0926D66F58AE85E684F0
:10043000C1102736810D26026F06812025026C0629
:10044000C140261AEC8817C3000110A3091022012D
:100450007AED8817AE0B308B3502A71F35946C8868
:1004600018E6881827063AA7881835963460A789B1
:100470000118E601D7EB6C04BDCBDF3184E603BD88
:10048000C7553A3306A6248109250E6A246C25BD7A
:10049000C7BF6F246F25A7238C8AC0A7C430A4BD13
:1004A000C685BDC5A935603596BDD24FBDC79DBDBA
:1004B000B958CC110297ECD7EAC603D7ED8E0600E7
:1004C0009FEEBDD6F23540BDA5493440A6842738FD
:1004D0004327443410C608BDB9A28D3FC603BDB939
:1004E000A28D38E600C10A24028D304FBDBDCC8DEF
:1004F0002AAEE48642AB0C8D1FE60D8D211F894F7D
:10050000BDBDCCBDB95835103088208C070025B54D
:10051000D6ED5CC11223A439BDA2827EB9ACBDC7A1
:100520005533064F4C81441022F92830C43AE684F2
:10053000C1C025F0390D6F2F5E8EB069AFE48E0219
:10054000DDC62CD70196062602C6208D6F81202796
:10055000FA8122260AC12C26061F89D7012022C132
:10056000222711810D260D8C02DD2744A61F810A4A
:10057000263E860D4D27179101271D3404A1E02743
:1005800017A7808C03D626068D462606201E8D4092
:1005900027CD6F848E02DC3981222704812026F248
:1005A0008D2E26EE812027F8812C27E6810D260846
:1005B0008D1E26DE810A27DA8D1C20D68D12271586
:1005C000BDC744E600C1401026F587C64A7EAC464A
:1005D000BDA1760D70393414BDC744E600C1402674
:1005E0000BEC8815830001ED88153594A7881163FD
:1005F00088103594BDB654C1051025E64D0F067E12
:10060000BC14BDB143C605BDB50FBDBC357EB69BA0
:100610008D07EC07DD527E880E966F3402BDB14324
:10062000BDA5AE0D6F102FE621BDC7443502976FF3
:100630006D001027D5C5398DE0A60197EBE6023491
:1006400010BDCD1E4AC43F34041F894FBDC779EB8E
:10065000E0890035103402A6008140350226B53409
:1006600010938A27038300018DAAD64F2704CB0855
:10067000D74FBDBC5FAEE4EC8813847F8D960F62CC
:10068000965CD64FBDB9C5BDBC5F3510EC098D84F5
:100690000F62965CD64FBDBB917EBCEEBDB143BD33
:1006A000B70EC1031022D777D7EBBDC79DBDC75585
:1006B00030066FE2C644A6804326026CE45A26F652
:1006C00035047EB4F3BDB70BC1031022D751F7092F
:1006D0005A39A6642613AE658CAF9A260CAE628C8E
:1006E000B16626058ECEECAF657E8846350246BDE6
:1006F000B1481027ED3D9E52EC0210830989250771
:10070000B3094A1025E0AA7EAFA481CA271C81C87C
:100710001026B2289D9F812C1027C734BDB70BC16E
:10072000041022E52596BC7E962EBDA4299D9F7EB1
:100730008C1BC1341026B230BDB262966F3402BD3C
:10074000A5AEBDA4060D6F2F13BDC744E600C14082
:10075000260A3502976FEC88177EB4F4BDA35F3587
:1007600002976FD66C7EB4F39D9F8D4FBD836CBD99
:10077000836CAC621025E4D2BD836CBDA5C7CC02EE
:1007800000FD0957BDCA044F8D2BEC62A364C30062
:10079000011F028D1EEC648D1AAE64A680BDCC24B0
:1007A000313F26F786FF8D0D4F5F8D0735368D0360
:1007B0007EA42D8D00BDCC241E89398EC2AF7EC98A
:1007C000389D9F8DF6BDCA07FC095783020010268D
:1007D000D6449E8A9DA52706BDB26DBDB73D9FD369
:1007E000BDA5C7BDCDBC34028D291F028D25D3D335
:1007F000DD9D1F01A6E01026D433BDC5C4D67027E9
:00000001FF
